A      00045299760210260001107107
B04799585508FS AM SPIRIT FILTER KS BL005957010917  0000100000101219001000000
B04799585509FS AM SPIRIT FILTER LT YE005961010917  0000100000201219001000000
B04799585525FS AM SPIRIT ORGANIC BLD 005968011344  0000100000101269001000000
B01230000007FS CAMEL CLASSIC BLUE  KS005790010226  0000100000101139001000000
B01230070899FS CAMEL CLASSIC WIDES BL005794011549  0000100000101289001000000
B01230010874FS CAMEL CRUSH RICH      002876010226  0000100000101139001000000
B02820030982FS L & M BOX             001060009717  0000100000301089001000000
B02820031022FS L & M BP BLUE 100 BOX 001063009717  0000100000101089001000000
B02820031552FS L & M BP BOLD BOX     005779009717  0000100000101089001000000
B04330010917FS LUCKY STRIKE RED BOX K002650008041  0000100000300899001000000
B04330010926FS LUCKY STRIKE RED BOX 1002651008041  0000100000100899001000000
B04330018732FS LUCKY STRIKE SILVER ME002669008041  0000100000100899001000000
B02820000363FS MARLBORO BP BOX 100   005682010138  0000100000501129001000000
B02820000465FS MARLBORO BP GOLD BOX 1005696010138  0000100000201129001000000
B02820000384FS MARLBORO BP GOLD KS BO005692010138  0000100000701129001000000
B02820000401FS MARLBORO BP GOLD MENT 005694010425  0000100000101159001000000
B02820000264FS MARLBORO BP KS BLEND #005702010138  0000100000101129001000000
B02820000357FS MARLBORO BP KS BOX    005676010138  0000100000701129001000000
B02820000361FS MARLBORO BP MENTHOL KS005680010425  0000100000101159001000000
B02820000477FS MARLBORO BP SILVER KIN005698010138  0000100000201129001000000
B02820000485FS MARLBORO BP SILVER MEN005701010425  0000100000101159001000000
B02820000323FS MARLBORO BP SMOOTH MEN005780010425  0000100000101159001000000
B02820000303FS MARLBORO BP SMOOTH 100001394010425  0000100000201159001000000
B02820000422FS MARLBORO BP SPEC BLD G005600010138  0000100000301129001000000
B02820000565FS MARLBORO BP SPEC BLD R005601010138  0000100000101129001000000
B02820000568FS MARLBORO BP SPEC BLD R005603010138  0000100000201129001000000
B02820000963FS MARLBORO BP 72 BP BOX 005996010138  0000100000201129001000000
B02820000965FS MARLBORO BP 72 GOLD BO005997010138  0000100000201129001000000
B02820000386FS MARLBORO BP 72 SILVER 005706010138  0000100000201129001000000
B02820000964FS MARLBORO MEN BLK SPEC 001405009688  0000100000101079001000000
B02820031772FS MARLBORO NXT KS BOX   005693009688  0000100000101079001000000
B02820000952FS MARLBORO SPEC BLD BLK 001401009688  0000100000301079001000000
B09050000046FS MAVERICK BOX KS       001036008039  0000100000200899001000000
B02610000573FS NEWPORT BOX 100       003125010739  0000100000201199001000000
B02610000575FS NEWPORT KS BOX        001057010739  0000100000201199001000000
B02720000862FS PALL MALL BLUE FILTER 005660009634  0000100000101079001000000
B02720034731FS PALL MALL MEN WHITE FI005671009634  0000100000101079001000000
B02720000175FS PALL MALL ORANGE FILTE005663009634  0000100000101079001000000
B02820000792FS PARLIAMENT BP BLUE KS 005752011478  0000100000101279001000000
B02820000784FS PARLIAMENT BP WHITE KS005748011478  0000100000101279001000000
B01100000406FS PYRAMID BLUE  100 BX  005942008552  0000100000100959001000000
B09050000057FS WINSTON KS BOX        001031009979  0000100000301109001000000
B07310000876COPENHAGEN LC WINTERGREEN013075003929  0000050000301099001000000
B04210001125GRIZZLY POUCH DARK WINTER017021003828  0000050000101069001000000
B07161030279BACK WOODS RUSSIAN CREAM 011952005750  0000080000200999001000000
B07161030192BACK WOODS SWEET AROMATIC011011005656  0000080000100989001000000
B07161030192BACK WOODS SWEET AROMATIC011011005656  0000080000100989001000000
B03400000524CADBURY CARAMELLO KING SI030460003923  0000180000000369001000000
B07062275101GOETZE BAG MINI COW TALES039489000114  0000010000300169001000000
B01600013704GUSHERS SUPER SOUR BERRY 036204001388  0000080000100249001000000
B31254662749HALLS BAG CHERRY 30 CT   048044000249  0000010000600379001000000
B31254662869HALLS BAG HON/LEM 30 CT  048041000249  0000010000600379001000000
B04223837266HARIBO MEGA ROULETTE GUMM039046001616  0000240000100119001000000
B04223830500HARIBO SMURFS 12/4OZ     039016000140  0000010000300209001000000
B02211007980HUBBA BUBBA BUBBLE TAPE 6036980000614  0000060000100179001000000
B03400000211ICE BREAKER DUO MINT WATE035024001700  0000080000100359001000000
B03400070296ICE BREAKER ICE CUBE FRUI035707002065  0000060000100579001000000
B03400000843ICE BREAKER ICE CUBE PEPP035691001367  0000040000100579001000000
B03400000229KIT KAT KING SIZE 24/CT  030457005068  0000240000100359001000000
B02200001923LIFESAVER GUMMI NEONS 12/039119000205  0000010000300299001000000
B01900008344LIFESAVER GUMMI WILD BERR039097000205  0000010000300299001000000
B01900008342LIFESAVER GUMMI 5 FLAVOR 039095000205  0000010000600299001000000
B02200001464LIFESAVER GUMMI 5 FLVR 15039567002856  0000150000100319001000000
B04000061045M&M HONEY ROASTED NUT SHA032893004382  0000240000100309001000000
B04000001732M&M PEANUT HANGING BAG 12039267000269  0000010000500389001000000
B04000001731M&M PLAIN HANGING BAG 12/039261000269  0000010000300389001000000
B07339001404MENTO GUM CB FRESH MINT 6036889002056  0000060000100579001000000
B07339000016MENTOS ROLLS ASST FRUIT 1035208001402  0000150000100159001000000
B02900007436PLANT BB CASHEWS SALTED 1038159000216  0000010000300329001000000
B02900001257PLANT BB PEANUT HONEY RST038152000179  0000010000300269001000000
B03400043095REESE BIG CUP KS 16CT    030082003487  0000160000100369001000000
B03400000440REESE CUP 36/CT   44000  030052004480  0000360000100209001000000
B03400048502REESE PB CUP/REESE PIECES032283003487  0000160000000369001000000
B03400000203REESE STICK KS 24 CT     032080005068  0000240000100359001000000
B04000000460SKITTLES ORIG FRUIT SHARE031020004382  0000240000100309001000000
B04000014093SKITTLES SOUR 12/6 OZ    039411000205  0000010000300299001000000
B04000064167SNICKER XTREME SHARE 24CT032203004382  0000240000100309001000000
B02200029841STARBURST GUMMIES ORIG PE039445000205  0000010000300299001000000
B07046203598SWEDISH FISH RED PB 12/8O039469000231  0000010000300339001000000
B01070002152T/B MILK DUDS 12/5 OZ BX 043010000155  0000010000300239001000000
B03400011470T/B REESE PIECES 12/4 OZ 043009000156  0000010000500249001000000
B04142011587TROLLI SR BRT CRWLR VRY B039617000170  0000010000500249001000000
B02070901230TROLLI SR BRT CRWLR 12/5 039619000170  0000010000300249001000000
B04000057457TWIX SALTED CARAMEL SHARE032400003914  0000200000100329001000000
B03400054402TWIZZLER STRAWBERRY 12/7 039093000248  0000010000000359001000000
B03485680698WELCH FRUIT MIXED FRUIT 9036714000266  0000010000300389001000000
B02200000920WRIG FREEDENT SPEAR JMBO 035006001399  0000120000100199001000000
B040000006033 MUSKETEER KING SIZE 24C032085004697  0000240000100329001000000
B01600051379BUGLES NACHO CHEESE 6/3 O026462001174  0000060000100329001000000
B04460002001FRESH STEP CAT LITTER(BAG640615002080  0000060000100539001000000
B01300000640HEINZ KETCHUP SQUEEZE 12/674010000335  0000010000100469001000000
B04800126504HELLMANS MAYONNAISE 12/8 675023000327  0000010000200409001000000
B02100001087KRAFT EASY MAC ORIG CUP 1655012000222  0000010000300319001000000
B02100065883KRAFT MAC+CHEESE 35/7.25 655036000191  0000010000300259001000000
B03760080744MARY KIT CORN BEEF HASH 1645013000367  0000010000300489001000000
B02310010363PEDIGREE RST CHICKEN DOG 640055002540  0000040000100849001000000
B73238813925WRAP CITY CHIP BBQ 12/12O115441000492  0000010000300709001000000
B73238813935WRAP CITY CHIP WHT CHEDD 115440000492  0000010000300709001000000
B03575111107BON APPETIT BEAR CLAW 8CT847711001371  0000080000100249001000000
B03575111106BON APPETIT DANISH APPLE 847713001371  0000080000000249001000000
B03575111109BON APPETIT DANISH CHEESE847715001371  0000080000100249001000000
B03575111208BON APPETIT DANISH CHEESE847726001714  0000100000000249001000000
B00008830100LAFRANCAISE CROIS SLC/MAR883010007867  0001000000200139001000000
B31284355536BAYER GENUINE ASPIRIN 24 052092000337  0000010000300519001000000
B84603600156GOODSENSE HYDROGEN PER 12065501000119  0000010000300199001000000
B78843411568ONE BAR REESE PNT BTR PRO123756002204  0000120000100289001000000
B32390001424VICKS NYQUIL ORIG LIQ 12/052152000965  0000010000301489001000000
B07835463267CABOT BUTTER BABY PACK 36800012000246  0000010000300349001000000
B07835462011CABOT BUTTER QTRS NAT 36/800009000429  0000010000300599001000000
B05000032275COFFEEMATE LIQ FR.VANILLA834015002566  0000060000100659001000000
B04410010196HOOD SOUR CREAM 12/16OZ 1811020000157  0000010000300219001000000
B02100000014PHILI CRM CHZ SFT 12/8OZ 815006000424  0000010000300589001000000
B07162100152MAG1 GAS TREATMENT 12/12 204030000190  0000010000300319001000000
B07162100147MAG1 SUPER FUEL INJ/CARB 189217000231  0000010000300389001000000
B07162160138MAG1 2-CYCLE OIL  12/8OZ 189562001607  0000120000100229001000000
B02410020421CHEEZ-IT BAG CHEDDAR JCK 121410001594  0000060000100409001000000
B03010012521KEEBLER 12PK CLUB & CHEDD121026000711  0000120000100099001000000
B00008190430CHICKEN TENDER CLIPPED JU819043007250  0000010000400000001000000
B00009750010TOTES                    975001000000  0000010000100000001000000
B04410010320HOOD GAL HOMO MILK 4/1 03801001001673  0000040000200529001000000
B04410010680HOOD GAL 1% MILK 4/1 0680801005001605  0000040000100509001000000
B04410010652HOOD GAL 2% MILK 4/1 0652801003001606  0000040000200509001000000
B04410010189HOOD HG HOMO MILK 9-1/2 G801009001925  0000090000100269001000000
B04410016223HOOD HG 1/2 & 1/2 CREAM 6801030002262  0000060000400479001000000
B04410010252HOOD HG 1% MILK 9-1/2 GAL801013001869  0000090000100269001000000
B04410010293HOOD HG 2% MILK 9-1/2 GAL801011001896  0000090000100269001000000
B04410010062HOOD PT LIGHT CREAM 12/16801025000143  0000010000300179001000000
B04410010316HOOD PT 1/2 & 1/2 CREAM 5801023001257  0000120000100139001000000
B04410026803HOOD 14OZ CHOC MILK 12/14801033000993  0000120000300109001000000
B84920502345VUSE ALTO POD MENTHOL 5% 020729011471  0000050000202869001000000
B84004520087ROGUE PCH 6MG SPEARMINT 5012089004089  0000050000101139001000000
B88796901164ZONE 6MG DRAGONFRUIT TFN 012173003412  0000050000100949001000000
B88796901182ZONE 6MG MINT TFN PCH 5CT012170003412  0000050000100949001000000
B88796901166ZONE 9MG DRAGONFRUIT TFN 012174003412  0000050000200949001000000
B60924990701ZYN 3MG CITRUS TOB FR NIC012051003541  0000050000100989001000000
B60924990401ZYN 3MG COFFEE TOB FR NIC012014003541  0000050000200989001000000
B60924990101ZYN 3MG PEPPERMNT TOB FR 012005003541  0000050000100989001000000
B60924990201ZYN 3MG SPEARMINT TOB FR 012009003541  0000050000100989001000000
B60924990301ZYN 3MG WINTERGRN TOB FR 012007003541  0000050000300989001000000
B60924990402ZYN 6MG COFFEE TOB FR NIC012015003541  0000050000200989001000000
B60924990003ZYN 6MG COOL MINT TOB FR 012004003541  0000050000300989001000000
B60924990202ZYN 6MG SPEARMINT TOB FR 012011003541  0000050000200989001000000
B60924990302ZYN 6MG WINTERGRN TOB FR 012008003541  0000050000200989001000000
CTABFUEL CHARGE              000001290
A      0004531176021026-000017304
B81601201387BIGS FIRE SUNFLOWENR SEED038601000169  000001-001100319001000000
B01070070366HER SHAQ-A-LICIOUS SOUR G039430000197  000001-000400359001000000
B02620000299SJ BITE MILD 8/3.75OZ    029287000358  000001-000700819001000000
B02620001474SJ BITE ORIGINAL 8/3.75OZ029286000425  000001-000400819001000000
B02620011730SJ GIANT TABASCO 24 CT   029075000087  000001-005200199001000000
B04400001157HANDI SNACKS RITZ CRCKER 029046000059  000001-002200129001000000
B03800063560KELL CUPS CORN POPS 6PK  605041000102  000001-000100179001000000
B03800063570KELL CUPS FROST FLAKE 6PK605039000102  000001-000300179001000000
B03800029936POP TART CRUNCH POPPER ST605139000134  000001-000600299001000000
B04400004225NAB FIG NEWTON 6.5OZ #422123035000230  000001-000200389001000000
B04400000488NAB GRAHAM CRACKER 488 14120034000459  000001-000300769001000000
B04400004250NAB LORNA DOONE 4.5 OZ 12120509000230  000001-000100389001000000
B01932000198NAB S.S. OREO 10CT       120277000050  000001-000400109001000000
B04400003424NAB 3.4 OZ RITZ 3424 12CT120305000230  000001-000100389001000000
B04400000382NAB 4 OZ PREMIUM SALTINE 120162000230  000001-000400389001000000
A      0004531936021026-000000460
B05000032275COFFEEMATE LIQ FR.VANILLA834015000460  000001-000100709001000000
A      0004531937021026-000000767
B04410026803HOOD 14OZ CHOC MILK 12/14801033000083  000001-000300109001000000
B04410026269HOOD 14OZ HOMO MILK 12/14801021000074  000001-000700099001000000
