A      00045122100106260000669042
B04799585508FS AM SPIRIT FILTER KS BL005957010712  0000100000101199001000000
B04799585509FS AM SPIRIT FILTER LT YE005961010712  0000100000301199001000000
B01230000003FS CAMEL CLASSIC FILTER K005787010041  0000100000201119001000000
B01230070899FS CAMEL CLASSIC WIDES BL005794011244  0000100000101249001000000
B01230070799FS CAMEL CLASSIC WIDES FI005793011244  0000100000101249001000000
B01230000094FS CAMEL CRUSH SILVER KS 005798010041  0000100000101119001000000
B02820031002FS L & M BLUE BOX        001062009512  0000100000101059001000000
B02820030982FS L & M BOX             001060009512  0000100000101059001000000
B02820000953FS MARLBORO BP BLK SPEC B001025009483  0000100000101059001000000
B02820000384FS MARLBORO BP GOLD KS BO005692009933  0000100000701109001000000
B02820000357FS MARLBORO BP KS BOX    005676009933  0000100000801109001000000
B02820000965FS MARLBORO BP 72 GOLD BO005997009933  0000100000101109001000000
B02720000185FS PALL MALL ORANGE FILTE005664009429  0000100000101049001000000
B09050000059FS WINSTON GOLD  BOX KS  001032009979  0000100000201109001000000
B09050000057FS WINSTON KS BOX        001031009979  0000100000101109001000000
B07717063287GAMBLER PIPE LARGE 16OZ R010101001549  0000010000601939001000000
B04210000004GRIZZLY POUCH MINT 5CT   017043003828  0000050000101069001000000
B04210000543GRIZZLY POUCH WINTERGREEN017036003828  0000050000101069001000000
B04210000552GRIZZLY SNUFF 5CT        017042003828  0000050000301069001000000
B04210000294KODIAK LC WINTERGREEN SNU013006004734  0000050000101319001000000
B07310000060SKOAL LONG CUT STRAIGHT (013071004641  0000050000401289001000000
B79995321020STOKER 12OZ LC WINTERGREE017903002480  0000010000303449001000000
B07161030192BACK WOODS SWEET AROMATIC011011005656  0000080000100989001000000
B07339001100AIRHEAD BITES PARADISE BL035090002263  0000180000100229001000000
B07339001082AIRHEAD BITES SOFT FILLED035406000228  0000010000300419001000000
B03400045167ALMOND JOY SNACK SZ PB 9/039850000264  0000010000300379001000000
B81005180735AMOS PEELERZ ORANGE PEG/S036115000274  0000010000300499001000000
B81005180963AMOS 4D PINEAPLLE BURST P036108000272  0000010000600499001000000
B04157005180BLUE DIAMOND ALMOND RSTD/038423001214  0000120000000159001000000
B04141942005COMBOS CHEDDAR CHEESE PRE380067000247  0000010000300369001000000
B02620000234DAVIDS TUBE BAGS ORIGINAL038982000693  0000120000100089001000000
B02620000232DAVIDS TUBE BAGS RANCH 12038980000693  0000120000100089001000000
B07744950612GURLEY 2/2 WATERMELON RIN034909000789  0000120000100129001000000
B04223870523HARIBO BERRIES 12/5OZ    039014000140  0000010000600209001000000
B03400014025HERSHEY KISSES HANGING BA039088002923  0000120000100349001000000
B87398300002HI-CHEW FRT CHEW STRAWBER039599001613  0000150000100189001000000
B02200000067HUBBA BUBBA MAX STRW/WATE035355001177  0000180000100109001000000
B07920087969LAFFY TAFFY MYSTERY ROPE 910399000910  0000240000100069001000000
B07920006067NERD GUMMY CLUSTERS VERY 039102000210  0000010000600309001000000
B85451700221PENNY CANDY RUNTS 15CT   042009003080  0000150000100299001000000
B02900002215PLANT TUBE PEANUT HEAT 18038322000782  0000180000100079001000000
B03400011643REESE PIECES HANGING BAG 039091000262  0000010000300379001000000
B02200007356SKITTLES MASHUPS 12/7.2 O039402000205  0000010000300299001000000
B07046201410SOUR PATCH ASST FRUIT 12/038488000231  0000010000600339001000000
B07046200517SOUR PATCH BIG HEADS 12/8039486000231  0000010000600339001000000
B07046200903SOUR PATCH GRAPE 12/8 OZ 039491000231  0000010000600339001000000
B02200029837STARBURST GUMMIES ALL PIN039446000205  0000010000300299001000000
B02430078104SUNBELT BAR FUDGE COCONUT119224000672  0000120000100089001000000
B07339005518TRIDENT VALUE PK WATERMEL035831001318  0000120000100189001000000
B02070901231TROLLI SR BRT OCTOPUS 12/039522000164  0000010000600239001000000
B03400054443TWIZZLER CHERRY PULL/PEEL039855000252  0000010000300369001000000
B02200000898WRIG EXTRA POLAR ICE  SS 035037001186  0000100000100199001000000
B02200000486WRIG ORBIT PEPPERMINT GUM035007001399  0000120000100199001000000
B02200000488WRIG ORBIT WINTERMINT GUM035009001399  0000120000100199001000000
B02200000512WRIG 5 COBALT SP 10CT 212035625001562  0000100000100269001000000
B04218743544B-Y BAG FREEZER BAG QRT 1619004000182  0000010000300249001000000
B04218742556B-Y COFFEE BREAKFAST BLEN610010000564  0000010000300759001000000
B04218742560B-Y COFFEE FRENCH VANILLA610013000565  0000010000300759001000000
B04218742559B-Y COFFEE HAZELNUT 6/12O610012000564  0000010000300759001000000
B03620021929BERTOLLI ALFREDO SAUCE 12655035000404  0000010000600539001000000
B05100023314CAMP SPAG O'S M/BALL 24/1655066000178  0000010000300239001000000
B01600021489CHEX MIX BOLD PARTY 8/4.5038484001730  0000080000100369001000000
B01600051235CHEX MIX MUDDY B BROWNIE 038466001912  0000070000100409001000000
B72225210090CLIF BAR CHOCOLATE CHIP 1123821001721  0000120000100229001000000
B88133400046DUNKIN DONUT ORIG BLEND 6610008001267  0000010000301689001000000
B05210009860FOIL GRAVY BROWN 24/.87 O480011000101  0000010000300149001000000
B05210009020FOIL GRAVY MUSHROOM  12/.480065000153  0000010000300219001000000
B04178900121MARUCHAN INST CUP CHICK 1665089000671  0000120000100099001000000
B07066240401NISSIN STIR FRY BEEF TERI665465000133  0000010000300219001000000
B03800055136POP TART 2PK WG FRSTD STR605118000443  0000060000100129001000000
B04119601088PROG. CHICKEN/NOODLE SOUP665134000409  0000010000300519001000000
B03760011075SKIPPY CREAM P.BUTTER 12/685007000293  0000010000300399001000000
B05150000095SMUCKER STRAWBERRY PRESV 685010000283  0000010000300409001000000
B85066800045DEEP RIVER MESQUITE BBQ 2119618000127  0000010002400189001000000
B85066800040DEEP RIVER ORIGINAL SALTE119606000127  0000010002400189001000000
B85066800042DEEP RIVER SEA SALT/VINEG119613000127  0000010002400189001000000
B85066800049DEEP RIVER SR CRM/ON KRIN119619000127  0000010002400189001000000
B03800018371PRINGLE 14/5.5OZ CRISP BB038130000261  0000010000300399001000000
B03800013843PRINGLE 14/5.5OZ SOUR CRE038210000261  0000010000300399001000000
B00008830100LAFRANCAISE CROIS SLC/MAR883010007867  0001000000200139001000000
B07225000828M-F APPLE CINN HONEY BUN 882061001210  0000090000100199001000000
B07225001027M-F BAG DONUT POWDERED SU882070000274  0000010000600399001000000
B07225003063M-F DONUT POWDER SUGAR MI882068001613  0000120000100199001000000
B07225000765M-F GRAND ICED HONEY BUN 882077000806  0000060000100199001000000
B07225001036M-F PINK SNOWBALLS 8PK   882056001044  0000080000100189001000000
B00008832230PILLS #06237 BTTRMLK BISC883223003594  0000010000205999001000000
B00008850810RICH DONUT JUMBO CAKE  10885081005995  0001000000100109001000000
B07003013135GOODSENSE IBPROFEN 200MG 065544000318  0000010000300539001000000
B36671597233LIL DRUG PEPTO BISMOL 6/6072042001281  0000060000100359001000000
B78843410808ONE BAR BIRTHDAY CAKE  12123553002204  0000120000100289001000000
B04218702042B-Y CREAM CHEESE BAR 12/8815029000208  0000010000300289001000000
B07835422404CABOT SOUR CREAM 6/16OZ  816010000235  0000010000300329001000000
B07385400808BICYCLE #808 POKER PLAYIN180090000300  0000010000000469001000000
B07717026022GAMBLER TUBES KS REG 200C020153000265  0000010001000339001000000
B07717026064GAMBLER TUBES 100 REG 200020170000350  0000010001000439001000000
B09955504332GMC FT OUR BLEND 100/2.2O147019016540  0001000000100279001000000
B78476207012ZIG ZAG CGR CONE PINEAPPL020002002039  0000150000200179001000000
B71309400443COFFEE STIRR WOOD 7.5 IN 088013002974  0000050000100000001000000
B00001471830GMC CUP PAPER 20OZ 600CT 147183005180  0006000000100000001000000
B02410070566CHEEZ-IT ORIG 12/7OZ#7056121094000315  0000010000300489001000000
B02410011626CHEEZ-IT 6CT/3OZ EXTRA TO120146000758  0000060000100199001000000
B02780007356KEEBLER SS VANILLA SGR WA121033001733  0000090000000329001000000
B02430083786LITTLE DEBBIE COSMIC BROW119211000785  0000060000100219001000000
B02430086591LITTLE DEBBIE DBL DECK FD119215000785  0000060000100219001000000
B02430086761LITTLE DEBBIE DBL DECK OA119225000785  0000060000100219001000000
B02430086571LITTLE DEBBIE SWISS ROLL 119200000785  0000060000200219001000000
B04400003219NAB CHIPS AHOY 12/13OZ   120031000530  0000010000300709001000000
B04400000210NAB CRACKER TOAST/PNUT BU120410000414  0000080000100089001000000
B04400003112NAB RITZ CRACKER #3112 10120037000525  0000010000000709001000000
B00007280760UVP ONIONS SPANISH 50 LB 728076002530  0000500000100079001000000
B05000010459COFFEEMATE PUMP SALT CHOC625968003503  0000020000100000001000000
B00009750010TOTES                    975001000000  0000010000400000001000000
B04410010320HOOD GAL HOMO MILK 4/1 03801001001734  0000040000200549001000000
B04410010652HOOD GAL 2% MILK 4/1 0652801003001660  0000040000100519001000000
B04410010189HOOD HG HOMO MILK 9-1/2 G801009000222  0000010000600279001000000
B04410011056HOOD HG MOOSESTUCK HOMG 9801145002158  0000090000000309001000000
B04410010252HOOD HG 1% MILK 9-1/2 GAL801013000214  0000010000300269001000000
B04410026803HOOD 14OZ CHOC MILK 12/14801033001012  0000120000300109001000000
B04410026269HOOD 14OZ HOMO MILK 12/14801021000906  0000120000200099001000000
B81012543596GEEK PULSE 15K B-BURST 5C020994008700  0000050000102269001000000
B81012543699GEEK PULSE 15K BERRY BLIS020992008700  0000050000102269001000000
B81012543675GEEK PULSE 15K BLACK CHER020993008700  0000050000102269001000000
B81012543590GEEK PULSE 15K CALIFORNIA020995008700  0000050000102269001000000
B81012543490GEEK PULSE 15K META MOON 020996008700  0000050000102269001000000
B81012543464GEEK PULSE 15K MEXICO MAN020997008700  0000050000102269001000000
B81012543594GEEK PULSE 15K MIAMI MINT020998008700  0000050000102269001000000
B81012543701GEEK PULSE 15K OMG B-BURS020999008700  0000050000102269001000000
B81012543693GEEK PULSE 15K SOUR APPLE020903008700  0000050000102269001000000
B81012543468GEEK PULSE 15K TRPCAL RNB020904008700  0000050000102269001000000
B04210004555GRIZZLY 12MG WINTERGRN TO012247003926  0000050000101099001000000
B84017061850VELO 6MG PLUS DRAGON FRUI012200003593  0000050000100999001000000
B84017061814VELO 6MG PLUS SPEARMINT 5012041003593  0000050000100999001000000
B84017061817VELO 9MG PLUS SPEARMINT 5012024003593  0000050000100999001000000
B60924992001ZYN 3MG CHILL TOB FR NIC 012109003541  0000050000100989001000000
CTABFUEL CHARGE              000001290
A      00045141270113260000600832
B04799585508FS AM SPIRIT FILTER KS BL005957010712  0000100000101199001000000
B04799585509FS AM SPIRIT FILTER LT YE005961010712  0000100000201199001000000
B01230000007FS CAMEL CLASSIC BLUE  KS005790010041  0000100000101119001000000
B01230019741FS CAMEL CRUSH           005876010041  0000100000101119001000000
B02820030982FS L & M BOX             001060009512  0000100000101059001000000
B02820031022FS L & M BP BLUE 100 BOX 001063009512  0000100000101059001000000
B02820000465FS MARLBORO BP GOLD BOX 1005696009933  0000100000301109001000000
B02820000384FS MARLBORO BP GOLD KS BO005692009933  0000100000201109001000000
B02820000357FS MARLBORO BP KS BOX    005676009933  0000100000501109001000000
B02820000965FS MARLBORO BP 72 GOLD BO005997009933  0000100000101109001000000
B02820031852FS MARLBORO EIGHTY THREE 001410009933  0000100000101109001000000
B02720000185FS PALL MALL ORANGE FILTE005664009429  0000100000101049001000000
B02820000784FS PARLIAMENT BP WHITE KS005748011223  0000100000101249001000000
B09050000061FS WINSTON GOLD  BOX 100 001033009979  0000100000101109001000000
B09050000057FS WINSTON KS BOX        001031009979  0000100000101109001000000
B07310000107COPENHAGEN SNUFF FINE CUT013063004516  0000050000201259001000000
B04210002496COUGAR LC WINTERGREEN 5CT013007002371  0000050000500659001000000
B07717063284GAMBLER PIPE MED 6OZ REGU010169000694  0000010000300869001000000
B04210000543GRIZZLY POUCH WINTERGREEN017036003828  0000050000101069001000000
B04210000552GRIZZLY SNUFF 5CT        017042003828  0000050000101069001000000
B07310000485SKOAL LONG CUT CITRUS BLE013065004641  0000050000101289001000000
B07310000060SKOAL LONG CUT STRAIGHT (013071004641  0000050000301289001000000
B07013700023MIDD BLK & MLD 10/5PK WIN011065007553  0000100000101049001000000
B07339000913AIRHEAD EXTRM SOURFULS 12035415000228  0000010000600419001000000
B81017908044AMOS PEELERZ GREEN APPLE 036116000274  0000010000300499001000000
B02620023190ANDY CAPP BEER BTTRD ONIO119300001351  0000120000100169001000000
B02620047159ANDY CAPP HOT FRIES 12/3 119112001351  0000120000100169001000000
B04141942008COMBOS PEPPERONI PIZZA CR380069000247  0000010000300369001000000
B04141942006COMBOS PIZZERIA PRETZEL 1380068000247  0000010000600369001000000
B81021903309FLIPZ BLUEBERRY DONUT PRE133505001848  0000060000100469001000000
B87218100006FLIPZ MILK CHOC PRETZ 6/5133501001848  0000060000100469001000000
B07744950613GURLEY 2/2 GUMMI WORMS 12034901000789  0000120000100129001000000
B07744950606GURLEY 2/2 GUMMY BUTTERFL034928000789  0000120000100129001000000
B01600051528GUSHERS FLVR MIXER 8/4.25036201001388  0000080000100249001000000
B04223875003HARIBO SOUR STREAMERS 12/039024000140  0000010000300209001000000
B03400014025HERSHEY KISSES HANGING BA039088000262  0000010000600379001000000
B03400000545ICE BREAKER ICE CUBE GRAP035714001367  0000040000100579001000000
B04000000032M&M PEANUT 48/CT         030002005771  0000480000100209001000000
B85451700214PENNY CANDY SATELLITE WAF042010003080  0000150000100299001000000
B03400000440REESE CUP 36/CT   44000  030052004480  0000360000100209001000000
B03400000052REESE FAST BREAK 18 CT ST030176002240  0000180000100209001000000
B03400000203REESE STICK KS 24 CT     032080005068  0000240000100359001000000
B02620011700SJ GIANT ORIGINAL 24CT   029045002624  0000240000100199001000000
B02200028596SKITTLES GUMMIES WILD BER039875000205  0000010000600299001000000
B07046200779SOUR PATCH BLUE RASPBERRY039487000231  0000010000300339001000000
B07046243140SOUR PATCH X-TREME 12/7.2036183000231  0000010000300339001000000
B07097047533T/B MIKE & IKE ORIGINAL F043108000106  0000010000600169001000000
B03400054443TWIZZLER CHERRY PULL/PEEL039855000252  0000010000300369001000000
B79042923136VALUE NAT CHOCCVRD PRETZL028202000251  0000010000300349001000000
B02200000666WRIG DOUBLEMINT SS   2173035004001166  0000100000100199001000000
B02200000898WRIG EXTRA POLAR ICE  SS 035037001186  0000100000100199001000000
B02200011602WRIG 5 PRISM SS 10CT/BOX 035632001562  0000100000100269001000000
B04218742790B-Y SANDWICH BAG RECLOSAB619730001998  0000120000100239001000000
B06414404315CHEF BEEF RAVIOLI 24/15 O655051000212  0000010000300289001000000
B06414404335CHEF MINI RAVIOLI & MTBAL665502000212  0000010000300289001000000
B01600021553CHEX MIX CHEDDAR 8/4.5OZ 038489001730  0000080000100369001000000
B01600021494CHEX MIX TRADITIONAL 8/4.038487001730  0000080000100369001000000
B72225216109CLIF BAR WHITE CHOC MACDA123823001721  0000120000100229001000000
B72225206952CLIF BUILDERS ALMND SLT C123879002094  0000120000100269001000000
B02400016725DELMONTE PEAR HALVES 12/1614031000278  0000010000300399001000000
B04920005675DOMINO BROWN LT SUG. 24/1710079000152  0000010000300209001000000
B03800031031POP TART 2PK FRSTD B.BERR605066000497  0000060000100139001000000
B03760011075SKIPPY CREAM P.BUTTER 12/685007000293  0000010000300399001000000
B05100002421SWANSON BEEF BROTH 24/14.665036000138  0000010000300179001000000
B05100002431SWANSON CHICK BROTH 24/14665035000143  0000010000300189001000000
B07092047633SWISS MISS MILK CHOC MIX 610175000389  0000010000300539001000000
B06647900006CLEARLY CANADIAN BLACKBER697008002484  0000120000100349001000000
B06647900005CLEARLY CANADIAN CHERRY 1697009002484  0000120000100349001000000
B75919980117BACON RTL INDIANA KITCHEN817099000477  0000010000300689001000000
B03800013843PRINGLE 14/5.5OZ SOUR CRE038210000261  0000010000300399001000000
B00008791090BLOUNT BROCCOLI & CHSE SO879109004769  0000040000101709001000000
B00008791150BLOUNT CHIC & WILD RICE S879115005346  0000040000101919001000000
B00077958780BLOUNT CHICKEN ENCHILADA 879110005671  0000040000102029001000000
B00077958770BLOUNT CHICKEN NOODLE SOU879121004591  0000040000101649001000000
B00077958770BLOUNT CHICKEN POT PIE SO879111004967  0000040000101779001000000
B00077958770BLOUNT ITALIAN WEDDING SO879125004291  0000040000101539001000000
B00008791160BLOUNT MINESTRONE SOUP 4/879116004333  0000040000101549001000000
B00008818660DAVID MFN BLK BLUEBERRY 1881866001590  0000120000100199001000000
B00008818680DAVID MFN BLK CHOCOLATE C881868001590  0000120000100199001000000
B00008818040DAVID MFN BLK CINNAMON CH881804001590  0000120000100199001000000
B00881878008DAVID MFN BLK FRENCH TOAS881878001590  0000120000100199001000000
B74367201301JUST BAGEL PLAIN 1002 8/6849003002647  0000080000100479001000000
B00008830100LAFRANCAISE CROIS SLC/MAR883010007867  0001000000100139001000000
B07225000724M-F CREAMY HONEY BUNN 9PK882059001210  0000090000100199001000000
B07225003062M-F DONUT CHOC GEM 12PK  882067001613  0000120000100199001000000
B07225000821M-F DREAMIES RASPBERRY 8P882064001044  0000080000100189001000000
B07225000765M-F GRAND ICED HONEY BUN 882077000806  0000060000100199001000000
B07225000723M-F JUMBO HONEY BUN 6PK  882002000806  0000060000100199001000000
B07225000817M-F PIE APPLE 8CT        882017001044  0000080000100189001000000
B07225000815M-F PIE CHERRY 8CT       882010001044  0000080000100189001000000
B89450600002STEVE'S WHPI CHOC CHIP 12881853002324  0000120000100299001000000
B89450600015STEVE'S WHPI LEMON   12/6881901002324  0000120000100299001000000
B89450600095STEVE'S WHPI MINT    12/6881900002324  0000120000100299001000000
B89450600049STEVE'S WHPI PUMPKIN 12/6881830002324  0000120000100299001000000
B83913800254FIT CRUNCH BB CHOC HCIP C123516002455  0000120000100319001000000
B81771902221FIT CRUNCH WAFER PEANUTER123523001658  0000090000100289001000000
B78843411570ONE BAR HERSHEY COOKIE CR123757002204  0000120000100289001000000
B719410750015-HOUR ES PEACH MANGO 12/123670002286  0000120000100299001000000
B719410186005-HOUR ES TRANSFUSION GP.123678002286  0000120000100299001000000
B719410785005-HOUR ES TROPICAL BURST 123809002286  0000120000100299001000000
B719410775005-HOUR ES WATERMELON 12/2123673002286  0000120000100299001000000
B07917600305BUTTER SOLID SALTED 36/1 800040008548  0000360000100329001000000
B02100061689VELVEETA PLAIN 12/16 OZ  805002006057  0000120000100709001000000
B           CAFE TANGO CUP 24OZ 300CT896036005590  0003000000100000001000000
B03097332502FRAZIL CUP 20OZ 300CT    896026005225  0003000000100000001000000
B02410019134CHEEZ-IT 6CT/30Z ORIG.   120132000758  0000060000100199001000000
B02780007357KEEBLER SS STRAW SGR WAFE121034001733  0000090000100329001000000
B02780007356KEEBLER SS VANILLA SGR WA121033001733  0000090000000329001000000
B03010012521KEEBLER 12PK CLUB & CHEDD121026000711  0000120000100099001000000
B02430080891LITTLE DEBBIE FUDGE ROUND119217000798  0000120000100100001000000
B02430086595LITTLE DEBBIE ZEBRA CAKE 119205000785  0000060000100219001000000
B04400003223NAB CHIPSAHOY CHEWY CHOC 120129000530  0000010000300709001000000
B04400000463NAB HONEY MAID GRAHAM CRA120038000574  0000010000300769001000000
B04400003112NAB RITZ CRACKER #3112 10120037000525  0000010000600709001000000
B04400006923NAB WHEAT THIN 6/8.5OZ   120025000525  0000010000300709001000000
B01410004552PEP FARM  GOLDFISH CHED 8026060001037  0000080000100209001000000
B01410004555PEP FARM GOLDFISH BLASTED026051001037  0000080000100209001000000
B00009750010TOTES                    975001000000  0000010000500000001000000
B04410010320HOOD GAL HOMO MILK 4/1 03801001001734  0000040000200549001000000
B04410010189HOOD HG HOMO MILK 9-1/2 G801009000222  0000010000600279001000000
B04410011056HOOD HG MOOSESTUCK HOMG 9801145002158  0000090000100309001000000
B04410016223HOOD HG 1/2 & 1/2 CREAM 6801030002268  0000060000100479001000000
B04410010293HOOD HG 2% MILK 9-1/2 GAL801011000217  0000010000100279001000000
B04410026803HOOD 14OZ CHOC MILK 12/14801033001012  0000120000300109001000000
B04410026269HOOD 14OZ HOMO MILK 12/14801021000906  0000120000100099001000000
B81991301259JUUL PODS 5% MENTHOL 8/4C020333011409  0000080000201789001000000
B04210004555GRIZZLY 12MG WINTERGRN TO012247003926  0000050000101099001000000
B84017061820VELO 6MG PLUS PEPPERMINT 012040003593  0000050000100999001000000
B88796901224ZONE 6MG CHILL TFN PCH 5C012254003412  0000050000100949001000000
B88796901164ZONE 6MG DRAGONFRUIT TFN 012173003412  0000050000200949001000000
B88796901222ZONE 6MG SMOOTH TFN PCH 5012256003412  0000050000100949001000000
B88796901186ZONE 6MG SPEARMINT TFN PC012169003412  0000050000200949001000000
B88796901170ZONE 9MG MINT TFN PCH 5CT012171003412  0000050000100949001000000
B88796901196ZONE 9MG SMOOTH TFN PCH 5012257003412  0000050000100949001000000
B88796901174ZONE 9MG SPEARMINT TFN 5C012225003412  0000050000200949001000000
B60924992022ZYN 6MG CHILL TOB FR NIC 012108003541  0000050000600989001000000
B60924990003ZYN 6MG COOL MINT TOB FR 012004003541  0000050000300989001000000
B60924991402ZYN 6MG SMOOTH TOB FR NIC012054003541  0000050000200989001000000
CTABFUEL CHARGE              000001290
A      0004515227011326-000002681
B03400000054KIT KAT WHITE 24 CT      030557000080  000001-001000169001000000
B03400000031MOUNDS 36/CT             030090000081  000001-000100169001000000
B03400000244ROLO 36/CT               030050000100  000001-001800209001000000
A      0004516194011426-000001911
B04178900125MARUCHAN INST CUP SHRIMP 665087000637  000012-000300099001000000
A      00045180520120260000428431
B04799585509FS AM SPIRIT FILTER LT YE005961010712  0000100000301199001000000
B01230000007FS CAMEL CLASSIC BLUE  KS005790010041  0000100000201119001000000
B01230000003FS CAMEL CLASSIC FILTER K005787010041  0000100000401119001000000
B01230070799FS CAMEL CLASSIC WIDES FI005793011244  0000100000101249001000000
B04330010917FS LUCKY STRIKE RED BOX K002650007916  0000100000100889001000000
B02820000384FS MARLBORO BP GOLD KS BO005692010138  0000100000201129001000000
B02820000357FS MARLBORO BP KS BOX    005676010138  0000100000501129001000000
B02820000965FS MARLBORO BP 72 GOLD BO005997010138  0000100000101129001000000
B02820031852FS MARLBORO EIGHTY THREE 001410010138  0000100000201129001000000
B02610000573FS NEWPORT BOX 100       003125010534  0000100000201179001000000
B02610000575FS NEWPORT KS BOX        001057010534  0000100000101179001000000
B02720000859FS PALL MALL MEN KS BOX I005661009429  0000100000101049001000000
B02720000175FS PALL MALL ORANGE FILTE005663009429  0000100000101049001000000
B02820000784FS PARLIAMENT BP WHITE KS005748011478  0000100000101279001000000
B09050000057FS WINSTON KS BOX        001031009979  0000100000101109001000000
B07310000882COPENHAGEN LC STRAIGHT 5C013078003929  0000050000101099001000000
B07310000876COPENHAGEN LC WINTERGREEN013075003929  0000050000201099001000000
B07310000107COPENHAGEN SNUFF FINE CUT013063004516  0000050000101259001000000
B07717063289GAMBLER PIPE LARGE 16OZ G010103001549  0000010000101939001000000
B07717063288GAMBLER PIPE LARGE 16OZ M010102001549  0000010000101939001000000
B04210000910GRIZZLY LC MINT 5CT      017061003828  0000050000101069001000000
B04210000004GRIZZLY POUCH MINT 5CT   017043003828  0000050000101069001000000
B04210000294KODIAK LC WINTERGREEN SNU013006004734  0000050000201319001000000
B07310000485SKOAL LONG CUT CITRUS BLE013065004641  0000050000101289001000000
B07310000060SKOAL LONG CUT STRAIGHT (013071004641  0000050000201289001000000
B07339001082AIRHEAD BITES SOFT FILLED035406000228  0000010000300419001000000
B07339000838AIRHEAD EXTRM BELTS RAINB039159002263  0000180000100229001000000
B03400045167ALMOND JOY SNACK SZ PB 9/039850000264  0000010000300379001000000
B03400000771BREATHSAVER SPEARMINT 12C035060001040  0000120000100149001000000
B03400000767BREATHSAVER WINTERGREEN 1035054001040  0000120000100149001000000
B04141942011COMBOS BUFFALO BLU CHS PR380066000247  0000010000600369001000000
B04141942007COMBOS CHED CHEESE CRACKE390070000247  0000010000600369001000000
B04141942005COMBOS CHEDDAR CHEESE PRE380067000247  0000010000600369001000000
B04000058493COMBOS NACHO CHEESE PRETZ390073000247  0000010000300369001000000
B04141942008COMBOS PEPPERONI PIZZA CR380069000247  0000010000400369001000000
B87218100006FLIPZ MILK CHOC PRETZ 6/5133501001848  0000060000100469001000000
B87218100054FLIPZ WHITE FUDGE PRETZ 6133502001848  0000060000100469001000000
B07744950600GURLEY 2/2 FRUIT SLICES 1034911000789  0000120000100129001000000
B01600051528GUSHERS FLVR MIXER 8/4.25036201001388  0000080000100249001000000
B04223870523HARIBO BERRIES 12/5OZ    039014000140  0000010000600209001000000
B04223832364HARIBO HAPPY COLA 12/5OZ 039011000140  0000010000600209001000000
B04223838086HARIBO PEACHES 12/5OZ    039015000140  0000010000600209001000000
B04223875003HARIBO SOUR STREAMERS 12/039024000140  0000010000300209001000000
B01070006080HEATH BAR 18/CT          030279002240  0000180000100209001000000
B03400014026HERSHEY KISSES W/ALMD PEG039074000262  0000010000600379001000000
B03400000995ICE BREAKER SOURS ASST BE035622001700  0000080000100359001000000
B03400000229KIT KAT KING SIZE 24/CT  030457005068  0000240000100359001000000
B07920087969LAFFY TAFFY MYSTERY ROPE 910399000933  0000240000100079001000000
B04000000031M&M PLAIN SINGLE CARTON 3030012004329  0000360000100209001000000
B07920006067NERD GUMMY CLUSTERS VERY 039102000245  0000010000600359001000000
B02900007538PLANT TUBE CASHEW SALTED 038310002184  0000180000100189001000000
B02900002215PLANT TUBE PEANUT HEAT 18038322000782  0000180000100079001000000
B02900002213PLANT TUBE PEANUT HONEY R038305000780  0000180000100079001000000
B03400043290REESE MINITURE HANGING BA039057000262  0000010000600379001000000
B02200007356SKITTLES MASHUPS 12/7.2 O039402000205  0000010000400299001000000
B07046200779SOUR PATCH BLUE RASPBERRY039487000231  0000010000300339001000000
B02200029837STARBURST GUMMIES ALL PIN039446000205  0000010000600299001000000
B07172053293T/B CHARLESTON CHEWS 12/4043017000134  0000010000300209001000000
B04000049752T/B M&M MILK CHOC 12/3.1O043113000141  0000010000400219001000000
B04000049754T/B M&M PEANUT 12/3.1OZ  043112000141  0000010000500219001000000
B02070900253TROLLI PEACHIEO'S 12/4.25039509000170  0000010000300249001000000
B02070901208TROLLI SR BRT EGGS 12/4 O039520000170  0000010000300249001000000
B03400054443TWIZZLER CHERRY PULL/PEEL039855000252  0000010000600369001000000
B02200028217WRIG EXTRA SWT WATERMELON035344001795  0000060000100499001000000
B01600051235CHEX MIX MUDDY B BROWNIE 038466001912  0000070000100409001000000
B01300079910HEINZ GRAVY H/S TURKEY 12657501000294  0000010000300429001000000
B04119601088PROG. CHICKEN/NOODLE SOUP665134000409  0000010000300519001000000
B03800018371PRINGLE 14/5.5OZ CRISP BB038130000261  0000010000600399001000000
B03800013872PRINGLE 14/5.5OZ RANCH   038049000261  0000010000600399001000000
B03800013843PRINGLE 14/5.5OZ SOUR CRE038210000261  0000010000600399001000000
B72049590435TGI FRI SOUR CRM/ONION SK119107000885  0000060000100219001000000
B01128400357JJ LEMON CREAM PIE 12CT  119409000885  0000120000100129001000000
B07225000828M-F APPLE CINN HONEY BUN 882061001210  0000090000100199001000000
B07225003062M-F DONUT CHOC GEM 12PK  882067001613  0000120000100199001000000
B07225000433M-F DONUT STICKS GLAZED 1882055001613  0000120000100199001000000
B07225000725M-F JELLY HONEY BUNN 9PK 882060001210  0000090000100199001000000
B07225000815M-F PIE CHERRY 8CT       882010001044  0000080000100189001000000
B07003013135GOODSENSE IBPROFEN 200MG 065544000318  0000010000200539001000000
B78843410675ONE BAR MAPLE GLAZED DOUG123548002204  0000120000100289001000000
B72011200456ROLAIDS NEW ADVANCE MIXED035520001361  0000120000100189001000000
B30766738808TUMS E-X ASSORTED BERRIES058048000826  0000120000100119001000000
B02410070566CHEEZ-IT ORIG 12/7OZ#7056121094000315  0000010000200489001000000
B02410011626CHEEZ-IT 6CT/3OZ EXTRA TO120146000758  0000060000100199001000000
B02410019134CHEEZ-IT 6CT/30Z ORIG.   120132000758  0000060000100199001000000
B02430086761LITTLE DEBBIE DBL DECK OA119225000785  0000060000100219001000000
B04400000211NAB CRACKER TOAST/CHEESE 120400000414  0000080000100089001000000
B04400003544NAB RITZ BITS PNT BTR 12/120032000565  0000010000000759001000000
B00009750010TOTES                    975001000000  0000010000300000001000000
B04410010320HOOD GAL HOMO MILK 4/1 03801001001734  0000040000200549001000000
B04410010652HOOD GAL 2% MILK 4/1 0652801003001660  0000040000100519001000000
B04410016223HOOD HG 1/2 & 1/2 CREAM 6801030002268  0000060000100479001000000
B04410010252HOOD HG 1% MILK 9-1/2 GAL801013000214  0000010000300269001000000
B04410010293HOOD HG 2% MILK 9-1/2 GAL801011000217  0000010000300279001000000
B04410026803HOOD 14OZ CHOC MILK 12/14801033001012  0000120000200109001000000
B88796901188ZONE 6MG WINTERGREEN TFN 012167003412  0000050000100949001000000
CTABFUEL CHARGE              000001290
A      0004519846012026-000006528
B04223870523HARIBO BERRIES 12/5OZ    039014000140  000001-000100209001000000
B07920006067NERD GUMMY CLUSTERS VERY 039102000210  000001-000100309001000000
B03400054443TWIZZLER CHERRY PULL/PEEL039855000252  000001-000100369001000000
B04218742556B-Y COFFEE BREAKFAST BLEN610010000564  000001-000100759001000000
B04218742560B-Y COFFEE FRENCH VANILLA610013000565  000001-000100759001000000
B04218742559B-Y COFFEE HAZELNUT 6/12O610012000564  000001-000100759001000000
B03620021929BERTOLLI ALFREDO SAUCE 12655035000404  000001-000200539001000000
B07066240401NISSIN STIR FRY BEEF TERI665465000133  000001-000100219001000000
B07003013135GOODSENSE IBPROFEN 200MG 065544000318  000001-000100539001000000
B71309400443COFFEE STIRR WOOD 7.5 IN 088013002974  000005-000100000001000000
A      0004519881012026-000059195
B07310000168SKOAL POUCH XTRA MINT 5CT013085004641  000005-001201289001000000
B05000010459COFFEEMATE PUMP SALT CHOC625968003503  000002-000100000001000000
A      00045214710122260000077107
B02820031852FS MARLBORO EIGHTY THREE 001410010138  0000100000201129001000000
B02820000376FS MARLBORO MEN BLUE 83 B005689010425  0000100000101159001000000
B04210002496COUGAR LC WINTERGREEN 5CT013007002371  0000050001200659001000000
B60924990702ZYN 6MG CITRUS TOB FR NIC012052003541  0000050000200989001000000
B60924990302ZYN 6MG WINTERGRN TOB FR 012008003541  0000050000200989001000000
CTABFUEL CHARGE              000001290
CTABMIN ORDER CHARGE         000002500
A      0004522766012726-000014695
B07310000039COPENHAGEN POUCH MINT 5CT013002000766  000001-000101099001000000
B07310000107COPENHAGEN SNUFF FINE CUT013063000883  000001-000901259001000000
B03400000771BREATHSAVER SPEARMINT 24 035052000058  000001-001100129001000000
B02900007541PLANT TUBE ALMOND SMOKED 038320000096  000001-000100179001000000
B02620011730SJ GIANT TABASCO 24 CT   029075000087  000001-001500199001000000
B04400000463DEL HONEY MAID CRACKER 14120035000337  000001-000600569001000000
B04400003223NAB CHIPSAHOY CHEWY CHOC 120129000424  000001-000100709001000000
B04400006923NAB WHEAT THIN 6/8.5OZ   120025000420  000001-000200709001000000
B88796901134BLU POD RICH TOBACCO 2.4%020441000657  000002-000101029001000000
A      00045231120127260001017697
B04799585509FS AM SPIRIT FILTER LT YE005961010917  0000100000201219001000000
B04799585505FS AM SPIRIT MEN MELLOW G005994011344  0000100000101269001000000
B04799585507FS AM SPIRIT PERIQUE BLEN005967010917  0000100000201219001000000
B01230000007FS CAMEL CLASSIC BLUE  KS005790010226  0000100000301139001000000
B01230000003FS CAMEL CLASSIC FILTER K005787010226  0000100000401139001000000
B01230000094FS CAMEL CRUSH SILVER KS 005798010226  0000100000101139001000000
B02820030982FS L & M BOX             001060009717  0000100000101089001000000
B02820031022FS L & M BP BLUE 100 BOX 001063009717  0000100000201089001000000
B04330010917FS LUCKY STRIKE RED BOX K002650008041  0000100000200899001000000
B04330010926FS LUCKY STRIKE RED BOX 1002651008041  0000100000100899001000000
B02820000465FS MARLBORO BP GOLD BOX 1005696010138  0000100000101129001000000
B02820000384FS MARLBORO BP GOLD KS BO005692010138  0000100000201129001000000
B02820000401FS MARLBORO BP GOLD MENT 005694010425  0000100000101159001000000
B02820000264FS MARLBORO BP KS BLEND #005702010138  0000100000201129001000000
B02820000357FS MARLBORO BP KS BOX    005676010138  0000100001201129001000000
B02820000565FS MARLBORO BP SPEC BLD R005601010138  0000100000101129001000000
B02820000965FS MARLBORO BP 72 GOLD BO005997010138  0000100000201129001000000
B02820031852FS MARLBORO EIGHTY THREE 001410010138  0000100000101129001000000
B02820000954FS MARLBORO MEN BLK SPEC 001400009688  0000100000101079001000000
B02820000952FS MARLBORO SPEC BLD BLK 001401009688  0000100000101079001000000
B02610000575FS NEWPORT KS BOX        001057010739  0000100000101199001000000
B02610000572FS NEWPORT MEN GOLD BOX 1003126010739  0000100000101199001000000
B02610000657FS NEWPORT NON MEN BOX 10003128009779  0000100000101089001000000
B02720000185FS PALL MALL ORANGE FILTE005664009634  0000100000101079001000000
B02820000784FS PARLIAMENT BP WHITE KS005748011478  0000100000301279001000000
B09050000059FS WINSTON GOLD  BOX KS  001032009979  0000100000101109001000000
B09050000061FS WINSTON GOLD  BOX 100 001033009979  0000100000101109001000000
B09050000057FS WINSTON KS BOX        001031009979  0000100000201109001000000
B07019559016AMERICAS BEST CHEW ORIGIN010080001642  0000010000602289001000000
B07310000039COPENHAGEN POUCH MINT 5CT013002003929  0000050000101099001000000
B04210002496COUGAR LC WINTERGREEN 5CT013007002371  0000050000800659001000000
B07717063289GAMBLER PIPE LARGE 16OZ G010103001549  0000010000301939001000000
B07717063287GAMBLER PIPE LARGE 16OZ R010101001549  0000010000601939001000000
B04210001122GRIZZLY LC DARK WINTERGRE017017003828  0000050000101069001000000
B04210000910GRIZZLY LC MINT 5CT      017061003828  0000050000201069001000000
B04210000552GRIZZLY SNUFF 5CT        017042003828  0000050000201069001000000
B07310000485SKOAL LONG CUT CITRUS BLE013065004641  0000050000301289001000000
B07310000060SKOAL LONG CUT STRAIGHT (013071004641  0000050000301289001000000
B07310000457SKOAL POUCH MINT 5 CT    013060004641  0000050000101289001000000
B07310000168SKOAL POUCH XTRA MINT 5CT013085004641  0000050000301289001000000
B79995323120STOKER 12OZ LC STRAIGHT  017910002480  0000010000103449001000000
B79995321020STOKER 12OZ LC WINTERGREE017903002480  0000010000303449001000000
B07013700018MIDD BLK & MLD 10/5PK ORI011046007553  0000100000101049001000000
B07339001082AIRHEAD BITES SOFT FILLED035406000228  0000010000600419001000000
B07339000913AIRHEAD EXTRM SOURFULS 12035415000228  0000010000600419001000000
B02620047159ANDY CAPP HOT FRIES 12/3 119112001351  0000120000100169001000000
B09990090836CRUNCH CHOCOLATE 36 CT   030343004137  0000360000100199001000000
B87218100006FLIPZ MILK CHOC PRETZ 6/5133501001848  0000060000100469001000000
B01600013704GUSHERS SUPER SOUR BERRY 036204001388  0000080000100249001000000
B04223832364HARIBO HAPPY COLA 12/5OZ 039011000140  0000010000600209001000000
B04223838086HARIBO PEACHES 12/5OZ    039015000140  0000010000300209001000000
B03400000229KIT KAT KING SIZE 24/CT  030457005068  0000240000100359001000000
B04000000401MILKY WAY KS 24/CT       030009004697  0000240000100329001000000
B07920006067NERD GUMMY CLUSTERS VERY 039102000245  0000010000600359001000000
B03400000653REESE NUTRAGEOUS KS 18CT 032078003923  0000180000100369001000000
B03400011643REESE PIECES HANGING BAG 039091000262  0000010000600379001000000
B02620011750SJ GIANT MILD 24 CT BX   029076002624  0000240000100199001000000
B03400000370SKOR BAR 18 CT           030046002240  0000180000100209001000000
B04000000263SNICKER KING SIZE BAR 24/030444004382  0000240000100309001000000
B07046200517SOUR PATCH BIG HEADS 12/8039486000231  0000010000600339001000000
B01070008813T/B GOOD & PLENTY 12/6 OZ043011000156  0000010000300249001000000
B07097047533T/B MIKE & IKE ORIGINAL F043108000106  0000010000300169001000000
B00980000100TIC TAC 100 FRUIT ADVENTU035014002118  0000120000100299001000000
B00980000103TIC TAC 100 ORANGE 12CT  035016002118  0000120000100299001000000
B04111600595TOPPS BABY BOTTLE POP LIN910633003461  0000180000100349001000000
B03400054443TWIZZLER CHERRY PULL/PEEL039855000252  0000010000300369001000000
B03400000502TWIZZLER TWIST STRAWBERRY031285002240  0000180000100209001000000
B79042923136VALUE NAT CHOCCVRD PRETZL028202000251  0000010000300349001000000
B02200000666WRIG DOUBLEMINT SS   2173035004001166  0000100000100199001000000
B02200000899WRIG EXTRA SPEARMINT  SS 035038001186  0000100000100199001000000
B02200028386WRIG ORBIT MEGA SPEARMINT035118001563  0000060000100439001000000
B02200000665WRIG SPEARMINT SS    2173035020001166  0000100000100199001000000
B03400000330YORK PEPPERMINT PATTY 36/030088004480  0000360000100209001000000
B04218721180B-Y PANCAKE SYRUP 12/24 O682012000332  0000010000300479001000000
B04218740654B-Y RED KIDNEY BEAN 12/15613006000100  0000010000300149001000000
B01600036830BUGLES ORIGINAL 6/3.0 OZ.026446001174  0000060000100329001000000
B05100023283CAMP SPAG O'S 24/15 OZ   655065000140  0000010000300189001000000
B06414404302CHEF BEEFARONI 24/15 OZ  655052000212  0000010000300289001000000
B01600021494CHEX MIX TRADITIONAL 8/4.038487001730  0000080000100369001000000
B72225210180CLIF BAR CHOCOLATE  BROWN123826001721  0000120000100229001000000
B72225210090CLIF BAR CHOCOLATE CHIP 1123821001721  0000120000100229001000000
B09451402004EXTRA 2X TROPICAL 6/57.6O660342001931  0000060000100429001000000
B01300000640HEINZ KETCHUP SQUEEZE 12/674010000335  0000010000600469001000000
B07110000551HIDDEN VALLEY RANCH ORIGI673003000436  0000010000300589001000000
B04119210043KELLOGG FROSTED FLAKES 18605081000551  0000010000300739001000000
B00414490011KRSTZ CMPLT BTRMLK PNCK M710023000321  0000010000300429001000000
B03760080744MARY KIT CORN BEEF HASH 1645013000367  0000010000300489001000000
B04749540070NATURE BAKERY DBL CHOC BR030166000980  0000120000100139001000000
B04749580013NATURE BAKERY OATMEAL CRU030164000980  0000120000100139001000000
B03800031131POP TART 2PK BRN SUG/CINN605067000497  0000060000100139001000000
B03800031840POP TART 2PK CHERRY  12/6605091000497  0000060000100139001000000
B04112902060PRINCE LASAGNA 12/16 OZ. 655041000233  0000010000300319001000000
B03800084524PRINGLE 12/2.5OZ ORIGINAL038797001410  0000120000100179001000000
B03800084525PRINGLE 12/2.5OZ SOUR CRE038798001410  0000120000100179001000000
B04650002251SHOUT TRIGGER 8/22OZ     700102000381  0000010000300529001000000
B07092047633SWISS MISS MILK CHOC MIX 610175000389  0000010000300539001000000
B05210007102VANILLA EXTRACT IMITATION480052000256  0000010000300469001000000
B02700061216WESSON OIL 16/16 OZ      710075000362  0000010000300489001000000
B01980070195WINDEX TRIGGER 8/23 OZ   700034000448  0000010000300629001000000
B03800013863PRINGLE 14/5.5OZ PIZZA FL038114000261  0000010000300399001000000
B00008455990DAVID CKIE APLE CRML CRIS845599008195  0000800000100159001000000
B00008456000DAVID CKIE REESES PNT BTR845600008195  0000800000100159001000000
B00008455970DAVID CKIE WHT CHOC MACDM845597007628  0000800000100149001000000
B00008818680DAVID MFN BLK CHOCOLATE C881868001590  0000120000100199001000000
B00008818040DAVID MFN BLK CINNAMON CH881804001590  0000120000100199001000000
B00881878008DAVID MFN BLK FRENCH TOAS881878001590  0000120000100199001000000
B00008818100DAVID MFN BLK MOUNTAIN BE881810001590  0000120000100199001000000
B00008818840DAVID MFN BLK PISTACHIO 1881884001590  0000120000100199001000000
B00008818830DAVID MFN BLK RED VELVET 881883001590  0000120000100199001000000
B08424465901DONUT JELLY FILLED DOTS 3883105003812  0000360000100179001000000
B07225001027M-F BAG DONUT POWDERED SU882070000274  0000010000300399001000000
B07225003062M-F DONUT CHOC GEM 12PK  882067001613  0000120000100199001000000
B07225003063M-F DONUT POWDER SUGAR MI882068001613  0000120000100199001000000
B07225000765M-F GRAND ICED HONEY BUN 882077000806  0000060000100199001000000
B07225000725M-F JELLY HONEY BUNN 9PK 882060001210  0000090000100199001000000
B07225000723M-F JUMBO HONEY BUN 6PK  882002000806  0000060000100199001000000
B07225000817M-F PIE APPLE 8CT        882017001044  0000080000100189001000000
B00008832230PILLS #06237 BTTRMLK BISC883223003594  0000010000105999001000000
B00049800252RICH DONUT RTF HOMESTYLE 885020003907  0000840000100079001000000
B89450600001STEVE'S WHPI PEANUT BTR 1881852002324  0000120000100299001000000
B89450600000STEVE'S WHPI PLAIN 12/6OZ881851002324  0000120000100299001000000
B03077203352ALWAYS ULTRA THIN OVERNGT060010000503  0000010000300679001000000
B30113048471GOODSENSE NON ASP X STR C065690000170  0000010000300289001000000
B07003013032GOODSENSE PAINRELIEF 100C065693000172  0000010000300289001000000
B78843410795ONE BAR ALMOND BLISS  12C123551002204  0000120000100289001000000
B07301021409TAMPAX 10'S REGULAR FLUSH060031000269  0000010000300359001000000
B07835422404CABOT SOUR CREAM 6/16OZ  816010000197  0000010000300279001000000
B07717026070GAMBLER TUBECUT TBS KS FL020165000265  0000010000500339001000000
B07717026023GAMBLER TUBES KS LIGHT 20020164000265  0000010000500339001000000
B07717026062GAMBLER TUBES KS MENTHOL 020163000340  0000010000500429001000000
B07717026022GAMBLER TUBES KS REG 200C020153000265  0000010000500339001000000
B07717026064GAMBLER TUBES 100 REG 200020170000350  0000010000500439001000000
B09955504700GMC CARAMEL VANILLA CREAM147004008274  0000500000100279001000000
B09955505531GMC DECAF COLUMBIAN 50/2.147006008274  0000500000100279001000000
B09955504332GMC FT OUR BLEND 100/2.2O147019016540  0001000000100279001000000
B           CAFE TANGO CUP 24OZ 300CT896036005590  0003000000100000001000000
B02410011090CHEEZ-IT DUOZ BACON & CHE122027001072  0000060000100279001000000
B02410012261CHEEZ-IT SS 8CT/1.5OZ    121013000526  0000080000100119001000000
B03010010057KEEBLER CLUB CRACKER 12/1122017000476  0000010000300689001000000
B03010012515KEEBLER 12PK CHEESE &PB C121024000711  0000120000100099001000000
B03010012521KEEBLER 12PK CLUB & CHEDD121026000711  0000120000100099001000000
B02430083786LITTLE DEBBIE COSMIC BROW119211000785  0000060000100219001000000
B02430086591LITTLE DEBBIE DBL DECK FD119215000785  0000060000100219001000000
B02430086761LITTLE DEBBIE DBL DECK OA119225000785  0000060000100219001000000
B02430080891LITTLE DEBBIE FUDGE ROUND119217000798  0000120000100100001000000
B02430086540LITTLE DEBBIE HONEY BUN G119229001570  0000120000100219001000000
B02430086571LITTLE DEBBIE SWISS ROLL 119200000785  0000060000200219001000000
B02430086595LITTLE DEBBIE ZEBRA CAKE 119205000785  0000060000000219001000000
B04400003219NAB CHIPS AHOY 12/13OZ   120031000530  0000010000300709001000000
B04400000210NAB CRACKER TOAST/PNUT BU120410000414  0000080000100089001000000
B04400006013NAB OREO DOUBLE STUFF 14.120524000596  0000010000300799001000000
B04400003544NAB RITZ BITS PNT BTR 12/120032000565  0000010000000759001000000
B01410004552PEP FARM  GOLDFISH CHED 8026060001037  0000080000100209001000000
B00007280760UVP ONIONS SPANISH 50 LB 728076002705  0000500000100079001000000
B00006257230PERF SERV SUGAR RAW 6/3LB625723005363  0000060000100000001000000
B00009750010TOTES                    975001000000  0000010000400000001000000
B04410010320HOOD GAL HOMO MILK 4/1 03801001001734  0000040000300549001000000
B04410010652HOOD GAL 2% MILK 4/1 0652801003001660  0000040000100519001000000
B04410010189HOOD HG HOMO MILK 9-1/2 G801009000222  0000010000600279001000000
B04410011056HOOD HG MOOSESTUCK HOMG 9801145000240  0000010000300309001000000
B04410016223HOOD HG 1/2 & 1/2 CREAM 6801030002268  0000060000100479001000000
B04410010252HOOD HG 1% MILK 9-1/2 GAL801013000214  0000010000300269001000000
B04410010293HOOD HG 2% MILK 9-1/2 GAL801011000217  0000010000300279001000000
B04410010316HOOD PT 1/2 & 1/2 CREAM 5801023000105  0000010000600139001000000
B04410010367HOOD QT 1/2 & 1/2 CREAM 5801032000185  0000010000600239001000000
B04410026803HOOD 14OZ CHOC MILK 12/14801033001012  0000120000300109001000000
B04410026269HOOD 14OZ HOMO MILK 12/14801021000906  0000120000100099001000000
B81991301142JUUL PODS 5% VIRGINIA TOB020338011409  0000080000101789001000000
B84920501625VUSE ALTO POD MENTHOL 5/2020550007288  0000050000101829001000000
B84017061826VELO 6MG PLUS CITRUS CHIL012038003681  0000050000101029001000000
B84017061808VELO 6MG PLUS MINT 5CT   012039003681  0000050000101029001000000
B84017061820VELO 6MG PLUS PEPPERMINT 012040003681  0000050000301029001000000
B84017061844VELO 6MG PLUS WILD BERRY 012042003681  0000050000201029001000000
B84017061802VELO 6MG PLUS WINTERGREEN012043003681  0000050000201029001000000
B84017061811VELO 9MG PLUS MINT 5CT   012022003681  0000050000101029001000000
B84017061823VELO 9MG PLUS PEPPERMINT 012023003681  0000050000201029001000000
B84017061805VELO 9MG PLUS WINTERGREEN012037003681  0000050000201029001000000
B88796901176ZONE 9MG WINTERGREEN TFN 012168003412  0000050000100949001000000
B60924990003ZYN 6MG COOL MINT TOB FR 012004003541  0000050000600989001000000
CTABFUEL CHARGE              000001290
