A      00045344780217260000569677
B01230000007FS CAMEL CLASSIC BLUE  KS005790010226  0000100000101139001000000
B01230020059FS CAMEL CLASSIC FILTER B007921010226  0000100000101139001000000
B01230000003FS CAMEL CLASSIC FILTER K005787010226  0000100000101139001000000
B02820030982FS L & M BOX             001060009717  0000100000101089001000000
B02820031022FS L & M BP BLUE 100 BOX 001063009717  0000100000101089001000000
B04330010917FS LUCKY STRIKE RED BOX K002650008041  0000100000200899001000000
B02820000887FS MARLBORO BLACK GOLD BO005678009688  0000100000101079001000000
B02820000953FS MARLBORO BP BLK SPEC B001025009688  0000100000101079001000000
B02820000384FS MARLBORO BP GOLD KS BO005692010138  0000100000101129001000000
B02820000357FS MARLBORO BP KS BOX    005676010138  0000100000301129001000000
B02820000965FS MARLBORO BP 72 GOLD BO005997010138  0000100000101129001000000
B02820031852FS MARLBORO EIGHTY THREE 001410010138  0000100000101129001000000
B02610000575FS NEWPORT KS BOX        001057010739  0000100000101199001000000
B02720000185FS PALL MALL ORANGE FILTE005664009634  0000100000101079001000000
B09050000057FS WINSTON KS BOX        001031009979  0000100000101109001000000
B04210002496COUGAR LC WINTERGREEN 5CT013007002371  0000050001000659001000000
B04210000910GRIZZLY LC MINT 5CT      017061003828  0000050000201069001000000
B04210000543GRIZZLY POUCH WINTERGREEN017036003828  0000050000101069001000000
B07310000480SKOAL LONG CUT APPLE BLEN013064004641  0000050000101289001000000
B07310000313SKOAL LONG CUT BERRY     013055004641  0000050000101289001000000
B07310000286SKOAL LONG CUT CHERRY  5C013073004641  0000050000101289001000000
B07310000485SKOAL LONG CUT CITRUS BLE013065004641  0000050000401289001000000
B07310000148SKOAL LONG CUT WINTERGREE013070004641  0000050000401289001000000
B79995321020STOKER 12OZ LC WINTERGREE017903002480  0000010000303449001000000
B75166718686CUBAN ROUNDS CHURCHILL NA011717004872  0000080000200849001000000
B02590024700SWISHER SWT CGRLO SWEET 1011623004087  0000100000100569001000000
B07339001082AIRHEAD BITES SOFT FILLED035406000228  0000010000300419001000000
B07339001312AIRHEADS SOUR WATERMELON 035225000915  0000360000100049001000000
B03400045167ALMOND JOY SNACK SZ PB 9/039850000264  0000010000300379001000000
B04141942011COMBOS BUFFALO BLU CHS PR380066000247  0000010000300369001000000
B04141942005COMBOS CHEDDAR CHEESE PRE380067000247  0000010000300369001000000
B04141942008COMBOS PEPPERONI PIZZA CR380069000247  0000010000300369001000000
B04141942006COMBOS PIZZERIA PRETZEL 1380068000247  0000010000300369001000000
B07339005501DENTYNE ICE ARC CHILL SPL035217000997  0000090000100189001000000
B81021903309FLIPZ BLUEBERRY DONUT PRE133505001848  0000060000100469001000000
B87218100054FLIPZ WHITE FUDGE PRETZ 6133502001848  0000060000100469001000000
B07744950589GURLEY 2/2 BUTTERSCOTCH B034920000789  0000120000100129001000000
B07744950613GURLEY 2/2 GUMMI WORMS 12034901000789  0000120000100129001000000
B07744950606GURLEY 2/2 GUMMY BUTTERFL034928000789  0000120000100129001000000
B04223832364HARIBO HAPPY COLA 12/5OZ 039011000140  0000010000300209001000000
B03400000240HERSHEY MILK CHOC 36CT   030057004480  0000360000100209001000000
B03400070296ICE BREAKER ICE CUBE FRUI035707002065  0000060000100579001000000
B01070055709JOLLY RANCH GUMMIE VERY B039415000260  0000010000600379001000000
B07920072293LAFFY TAFFY BLU RASPBERRY910397000933  0000240000100079001000000
B07920087969LAFFY TAFFY MYSTERY ROPE 910399000933  0000240000100079001000000
B07920006067NERD GUMMY CLUSTERS VERY 039102000245  0000010000300359001000000
B02900002215PLANT TUBE PEANUT HEAT 18038322000782  0000180000100079001000000
B02900002211PLANT TUBE PEANUT SALTED 038302000780  0000180000100079001000000
B03400048502REESE PB CUP/REESE PIECES032283003487  0000160000100369001000000
B02200028596SKITTLES GUMMIES WILD BER039875000205  0000010000300299001000000
B04000001502SNICKER HANGING BAG 12/4.039408000269  0000010000300389001000000
B07046200779SOUR PATCH BLUE RASPBERRY039487000231  0000010000300339001000000
B07046243140SOUR PATCH X-TREME 12/7.2036183000231  0000010000300339001000000
B04000049754T/B M&M PEANUT 12/3.1OZ  043112000141  0000010000300219001000000
B04000000405TWIX CARAMEL KS 24/CT    032013004697  0000240000100329001000000
B03400054443TWIZZLER CHERRY PULL/PEEL039855000252  0000010000300369001000000
B02200002036WRIG EXTRA PEPPERMINT MEG035340001795  0000060000100499001000000
B02200000483WRIG ORBIT SWEET MINT 12 035257001399  0000120000100199001000000
B02200000665WRIG SPEARMINT SS    2173035020001166  0000100000100199001000000
B04218740654B-Y RED KIDNEY BEAN 12/15613006000114  0000010000600169001000000
B04218741012B-Y TOMATO STEWED 24/14.5910112000099  0000010000600149001000000
B72225210260CLIF BAR BLUEBERRY CRISP 123797001713  0000120000100229001000000
B72225260144CLIF BUILDERS CHOCOLATE M123825002096  0000120000100269001000000
B05210009020FOIL GRAVY MUSHROOM  12/.480065000153  0000010000300219001000000
B04133112466GOYA BLACK BEANS 24/16 OZ601100000162  0000010000300219001000000
B04119210239KELLOGG FST MINI WHTS BIT605096000551  0000010000300739001000000
B04749540070NATURE BAKERY DBL CHOC BR030166000980  0000120000100139001000000
B04749580000NATURE BAKERY OATMEAL CRU030162000980  0000120000100139001000000
B03000003050QUAKER CORN MEAL 12/24 OZ710046000265  0000010000300359001000000
B01480058223REAL LEMON JUICE 12/15 OZ695105000257  0000010000300399001000000
B05400020042SCOTT TOILET TISSUE 36/1 620043000127  0000010000600169001000000
B81143500778SPIC AND SPAN ALL PURPOSE700059000205  0000010000300289001000000
B76211120605STARBUCKS GROUND HOUSE BL610001001399  0000010000301869001000000
B03800013857PRINGLE 14/5.5OZ CHEDDAR 038012000254  0000010000300379001000000
B03800013841PRINGLE 14/5.5OZ ORIGINAL038011000254  0000010000300379001000000
B03800013843PRINGLE 14/5.5OZ SOUR CRE038210000254  0000010000300379001000000
B00008790020BC TOMATO SOUP CREAMY 2/8879002003979  0000020000102849001000000
B00077958770BLOUNT ANGUS BF & BARLEY 879127004604  0000040000101649001000000
B00008791090BLOUNT BROCCOLI & CHSE SO879109004669  0000040000101669001000000
B00008791150BLOUNT CHIC & WILD RICE S879115005246  0000040000101879001000000
B00077958780BLOUNT CHICKEN ENCHILADA 879110005571  0000040000101999001000000
B00077958770BLOUNT CHICKEN NOODLE SOU879121004491  0000040000101609001000000
B00077958770BLOUNT CHICKEN POT PIE SO879111004867  0000040000101739001000000
B00077958770BLOUNT ITALIAN WEDDING SO879125004191  0000040000101499001000000
B00008791160BLOUNT MINESTRONE SOUP 4/879116004233  0000040000001519001000000
B00008455990DAVID CKIE APLE CRML CRIS845599008195  0000800000100159001000000
B00008456000DAVID CKIE REESES PNT BTR845600008195  0000800000100159001000000
B00008456030DAVID CKIE SMORES 80/4.5O845603008879  0000800000100169001000000
B00008456010DAVID CKIE TRIPLE CHOCOLA845601008039  0000800000100159001000000
B00008455970DAVID CKIE WHT CHOC MACDM845597007628  0000800000100149001000000
B00881878008DAVID MFN BLK FRENCH TOAS881878001590  0000120000100199001000000
B00008818100DAVID MFN BLK MOUNTAIN BE881810001590  0000120000100199001000000
B00008818840DAVID MFN BLK PISTACHIO 1881884001590  0000120000100199001000000
B00008818830DAVID MFN BLK RED VELVET 881883001590  0000120000100199001000000
B74367201304JUST BAGEL ONION 8/6PK   849040000355  0000010000300509001000000
B07225001027M-F BAG DONUT POWDERED SU882070000274  0000010000300399001000000
B07225003062M-F DONUT CHOC GEM 12PK  882067001613  0000120000200199001000000
B07225000821M-F DREAMIES RASPBERRY 8P882064001044  0000080000100189001000000
B07225000765M-F GRAND ICED HONEY BUN 882077000806  0000060000100199001000000
B07225000817M-F PIE APPLE 8CT        882017001044  0000080000100189001000000
B00049800252RICH DONUT RTF HOMESTYLE 885020003907  0000840000100079001000000
B07225001384WONDER CUPCAKE CHOC PNT B882029000806  0000060000100199001000000
B30067200024EXCEDRIN CAPLETS 12/24 CT052126000523  0000010000300809001000000
B07003013135GOODSENSE IBPROFEN 200MG 065544000318  0000010000300539001000000
B07835422404CABOT SOUR CREAM 6/16OZ  816010000235  0000010000300329001000000
B08302704024EGGS WHITE LARGE CTN 15/D826003002587  0000150000200249001000000
B07432912338OH SNAP DILLY BITES PICKL832001001685  0000120000100219001000000
B07432912336OH SNAP GONE DILLY PICKLE832002001690  0000120000100219001000000
B07717026070GAMBLER TUBECUT TBS KS FL020165000265  0000010000500339001000000
B07717026062GAMBLER TUBES KS MENTHOL 020163000340  0000010001000429001000000
B07717026022GAMBLER TUBES KS REG 200C020153000265  0000010000500339001000000
B00001471830GMC CUP PAPER 20OZ 600CT 147183005180  0006000000100000001000000
B02410070566CHEEZ-IT ORIG 12/7OZ#7056121094000315  0000010000300489001000000
B02410019134CHEEZ-IT 6CT/30Z ORIG.   120132000728  0000060000100189001000000
B02430086591LITTLE DEBBIE DBL DECK FD119215000785  0000060000000219001000000
B02430086571LITTLE DEBBIE SWISS ROLL 119200000785  0000060000100219001000000
B04400000211NAB CRACKER TOAST/CHEESE 120400000414  0000080000100089001000000
B04400000210NAB CRACKER TOAST/PNUT BU120410000414  0000080000100089001000000
B01410004552PEP FARM  GOLDFISH CHED 8026060001037  0000080000100209001000000
B01410004555PEP FARM GOLDFISH BLASTED026051001037  0000080000100209001000000
B00007280760UVP ONIONS SPANISH 50 LB 728076002705  0000500000100079001000000
B00001458000CAPP HOT CHOCOLATE POWDER145800003096  0000060000100000001000000
B04182007003JALAPENOS SLICED 4/1 GAL 625064004565  0000040000100000001000000
B00009750010TOTES                    975001000000  0000010000200000001000000
B04410010320HOOD GAL HOMO MILK 4/1 03801001001673  0000040000300529001000000
B04410010652HOOD GAL 2% MILK 4/1 0652801003001606  0000040000100509001000000
B04410010189HOOD HG HOMO MILK 9-1/2 G801009000214  0000010000600269001000000
B04410010316HOOD PT 1/2 & 1/2 CREAM 5801023000105  0000010000300139001000000
B04410010367HOOD QT 1/2 & 1/2 CREAM 5801032000185  0000010000300239001000000
B04410026803HOOD 14OZ CHOC MILK 12/14801033000993  0000120000200109001000000
B81991301515JUUL PODS 5% MENTHOL 8/2C020387006986  0000080000101099001000000
B83310891020NYKD ICON 35K SIGNATURE T020650008530  0000050000102219001000000
B84017061808VELO 6MG PLUS MINT 5CT   012039003681  0000050000101029001000000
B84017061814VELO 6MG PLUS SPEARMINT 5012041003681  0000050000201029001000000
B84017061817VELO 9MG PLUS SPEARMINT 5012024003681  0000050000201029001000000
B88796901186ZONE 6MG SPEARMINT TFN PC012169003412  0000050000100949001000000
B60924990401ZYN 3MG COFFEE TOB FR NIC012014003541  0000050000100989001000000
B60924992022ZYN 6MG CHILL TOB FR NIC 012108003541  0000050000300989001000000
B60924990702ZYN 6MG CITRUS TOB FR NIC012052003541  0000050000300989001000000
B60924990003ZYN 6MG COOL MINT TOB FR 012004003541  0000050000300989001000000
B60924991402ZYN 6MG SMOOTH TOB FR NIC012054003541  0000050000100989001000000
CTABFUEL CHARGE              000001290
