A      00045300070210260000549457
B04799585509FS AM SPIRIT FILTER LT YE005961010917  0000100000101219001000000
B01230000007FS CAMEL CLASSIC BLUE  KS005790010226  0000100000101139001000000
B01230000003FS CAMEL CLASSIC FILTER K005787010226  0000100000301139001000000
B01230000094FS CAMEL CRUSH SILVER KS 005798010226  0000100000101139001000000
B04330010917FS LUCKY STRIKE RED BOX K002650008041  0000100000100899001000000
B02820000384FS MARLBORO BP GOLD KS BO005692010138  0000100000401129001000000
B02820000357FS MARLBORO BP KS BOX    005676010138  0000100000501129001000000
B02820000485FS MARLBORO BP SILVER MEN005701010425  0000100000101159001000000
B02820000323FS MARLBORO BP SMOOTH MEN005780010425  0000100000101159001000000
B02820000965FS MARLBORO BP 72 GOLD BO005997010138  0000100000201129001000000
B02820031852FS MARLBORO EIGHTY THREE 001410010138  0000100000101129001000000
B02610000573FS NEWPORT BOX 100       003125010739  0000100000101199001000000
B02720000851FS PALL MALL RED FILTER K005657009634  0000100000101079001000000
B04210002502COUGAR LC STRAIGHT 5CT RO013015002371  0000050000100659001000000
B04210002496COUGAR LC WINTERGREEN 5CT013007002371  0000050000800659001000000
B07717063287GAMBLER PIPE LARGE 16OZ R010101001549  0000010000301939001000000
B07717063286GAMBLER PIPE MED 6OZ GOLD010174000694  0000010000300869001000000
B04210000910GRIZZLY LC MINT 5CT      017061003828  0000050000101069001000000
B07310000485SKOAL LONG CUT CITRUS BLE013065004641  0000050000501289001000000
B07310000060SKOAL LONG CUT STRAIGHT (013071004641  0000050000401289001000000
B07310000060SKOAL LONG CUT STRAIGHT (013071004641  0000050000401289001000000
B07310000148SKOAL LONG CUT WINTERGREE013070004641  0000050000501289001000000
B07161030279BACK WOODS RUSSIAN CREAM 011952005750  0000080000100999001000000
B02590024700SWISHER SWT CGRLO SWEET 1011623004087  0000100000100569001000000
B02590024716SWISHER SWT PERFECTO 10/5011060005807  0000100000100809001000000
B07339000913AIRHEAD EXTRM SOURFULS 12035415000228  0000010000600419001000000
B81017908044AMOS PEELERZ GREEN APPLE 036116000274  0000010000300499001000000
B81005180735AMOS PEELERZ ORANGE PEG/S036115000274  0000010000300499001000000
B03400000340CADBURY CARAMELLO 18 CT 0030285002240  0000180000100209001000000
B04141942008COMBOS PEPPERONI PIZZA CR380069000247  0000010000300369001000000
B87218100006FLIPZ MILK CHOC PRETZ 6/5133501001848  0000060000100469001000000
B01600013704GUSHERS SUPER SOUR BERRY 036204001388  0000080000100249001000000
B31254662752HALLS STICK VIT C CITRUS 035075002040  0000200000100159001000000
B04223870523HARIBO BERRIES 12/5OZ    039014000140  0000010000300209001000000
B04223838086HARIBO PEACHES 12/5OZ    039015000140  0000010000600209001000000
B07339002634MENTOS ROLLS STRAWBERRY 1035221001402  0000150000100159001000000
B04000000401MILKY WAY KS 24/CT       030009004697  0000240000100329001000000
B85451700283PENNY CANDY GUMMI SHARKS 042005003080  0000150000100299001000000
B02620011700SJ GIANT ORIGINAL 24CT   029045002624  0000240000100199001000000
B04000000160SKITTLES 36/CT           030005004265  0000360000100199001000000
B07046201410SOUR PATCH ASST FRUIT 12/038488000231  0000010000300339001000000
B07046200517SOUR PATCH BIG HEADS 12/8039486000231  0000010000300339001000000
B00980000100TIC TAC 100 FRUIT ADVENTU035014002118  0000120000100299001000000
B79042923136VALUE NAT CHOCCVRD PRETZL028202000251  0000010000300349001000000
B02200000666WRIG DOUBLEMINT SS   2173035004001166  0000100000100199001000000
B02200001787WRIG EXTRA SPEARMINT MEGA035338001795  0000060000100499001000000
B02200028217WRIG EXTRA SWT WATERMELON035344001795  0000060000100499001000000
B03700095860BOUNCE FABRIC SOFT SHEET 690026000108  0000010000300169001000000
B01600036830BUGLES ORIGINAL 6/3.0 OZ.026446001174  0000060000100329001000000
B05100000550CAMP 12/18OZ CHKY BEEF/VE665041000362  0000010000300459001000000
B01600021494CHEX MIX TRADITIONAL 8/4.038487001730  0000080000100369001000000
B01300079800HEINZ GRAVY H/S BEEF 12/1657502000294  0000010000300429001000000
B82927451375MEOW MIX 4/3.1LB         640005002980  0000040000300999001000000
B75919980117BACON RTL INDIANA KITCHEN817099000477  0000010000300689001000000
B00008818660DAVID MFN BLK BLUEBERRY 1881866001590  0000120000100199001000000
B00008818680DAVID MFN BLK CHOCOLATE C881868001590  0000120000100199001000000
B00008818640DAVID MFN BLK CRANBERRY O881864001590  0000120000100199001000000
B00881878008DAVID MFN BLK FRENCH TOAS881878001590  0000120000100199001000000
B00008818100DAVID MFN BLK MOUNTAIN BE881810001590  0000120000100199001000000
B07225001027M-F BAG DONUT POWDERED SU882070000274  0000010000300399001000000
B07225000724M-F CREAMY HONEY BUNN 9PK882059001210  0000090000100199001000000
B07225003063M-F DONUT POWDER SUGAR MI882068001613  0000120000100199001000000
B07225000765M-F GRAND ICED HONEY BUN 882077000806  0000060000100199001000000
B07225000725M-F JELLY HONEY BUNN 9PK 882060001210  0000090000100199001000000
B00008832230PILLS #06237 BTTRMLK BISC883223003594  0000010000205999001000000
B00008850810RICH DONUT JUMBO CAKE  10885081005995  0001000000100109001000000
B89450600002STEVE'S WHPI CHOC CHIP 12881853002324  0000120000100299001000000
B89450600019STEVE'S WHPI DOULB CHOC 1881854002324  0000120000100299001000000
B89450600018STEVE'S WHPI MAPLE  12/6O881863002324  0000120000100299001000000
B89450600000STEVE'S WHPI PLAIN 12/6OZ881851002324  0000120000100299001000000
B89450600030STEVE'S WHPI RED VELVET 1881874002324  0000120000100299001000000
B83913800254FIT CRUNCH BB CHOC HCIP C123516002455  0000120000100319001000000
B78843410881ONE BAR CCHIP COOKIE DOUG123549002204  0000120000100289001000000
B719410750015-HOUR ES PEACH MANGO 12/123670002286  0000120000100299001000000
B07717026023GAMBLER TUBES KS LIGHT 20020164000265  0000010000500339001000000
B07717026022GAMBLER TUBES KS REG 200C020153000265  0000010000500339001000000
B07717026064GAMBLER TUBES 100 REG 200020170000350  0000010000500439001000000
B07162100122MAG1 DOT 3 BRAKE FLUID 12189022000228  0000010000600389001000000
B07162100142MAG1 FUEL INJECTOR/CARB C189219000203  0000010000300339001000000
B03790099142RONSON BUTANE FUEL 42 GRA020025000267  0000010000300409001000000
B00001471850GMC LID DOME 1000CT LK316147185002820  0000010000100000001000000
B03010012521KEEBLER 12PK CLUB & CHEDD121026000711  0000120000100099001000000
B02430083786LITTLE DEBBIE COSMIC BROW119211000785  0000060000100219001000000
B02430086761LITTLE DEBBIE DBL DECK OA119225000785  0000060000100219001000000
B02430086571LITTLE DEBBIE SWISS ROLL 119200000785  0000060000100219001000000
B04400003049NAB CHICKEN IN BISKIT 7.5120022000525  0000010000300709001000000
B04400006013NAB OREO DOUBLE STUFF 14.120524000596  0000010000300799001000000
B04400008208NAB S.S. OREO KING SIZE 8120537001835  0000120000100259001000000
B00007280760UVP ONIONS SPANISH 50 LB 728076002705  0000500000100079001000000
B00001458100CAPP ENGLISH TOFFEE 6/2LB145810002967  0000060000100000001000000
B05000080003COFFEEMATE PUMP FRNCH VAN625950003503  0000020000100000001000000
B00009750010TOTES                    975001000000  0000010000200000001000000
B04410010320HOOD GAL HOMO MILK 4/1 03801001001673  0000040000200529001000000
B04410010652HOOD GAL 2% MILK 4/1 0652801003001606  0000040000200509001000000
B04410010189HOOD HG HOMO MILK 9-1/2 G801009000214  0000010000600269001000000
B04410016223HOOD HG 1/2 & 1/2 CREAM 6801030002262  0000060000200479001000000
B04410010252HOOD HG 1% MILK 9-1/2 GAL801013000207  0000010000300259001000000
B04410010293HOOD HG 2% MILK 9-1/2 GAL801011000211  0000010000300269001000000
B04410026803HOOD 14OZ CHOC MILK 12/14801033000993  0000120000200109001000000
B04410026558HOOD 14OZ COFFE MILK 12CT801034000946  0000120000000099001000000
B04410026269HOOD 14OZ HOMO MILK 12/14801021000887  0000120000200099001000000
B81991301515JUUL PODS 5% MENTHOL 8/2C020387006986  0000080000101099001000000
B81991301142JUUL PODS 5% VIRGINIA TOB020338011409  0000080000101789001000000
B84920502342VUSE ALTO POD MENTHOL 2.4020615011471  0000050000102869001000000
B84017061811VELO 9MG PLUS MINT 5CT   012022003681  0000050000101029001000000
B84017061823VELO 9MG PLUS PEPPERMINT 012023003681  0000050000101029001000000
B60924992022ZYN 6MG CHILL TOB FR NIC 012108003541  0000050000100989001000000
CTABFUEL CHARGE              000001290
