A      00045386030224260000850244
B04799585509FS AM SPIRIT FILTER LT YE005961010917  0000100000301219001000000
B01230000007FS CAMEL CLASSIC BLUE  KS005790010226  0000100000401139001000000
B01230000003FS CAMEL CLASSIC FILTER K005787010226  0000100000201139001000000
B01230070799FS CAMEL CLASSIC WIDES FI005793011549  0000100000101289001000000
B01230000094FS CAMEL CRUSH SILVER KS 005798010226  0000100000101139001000000
B02820030982FS L & M BOX             001060009717  0000100000201089001000000
B02820031022FS L & M BP BLUE 100 BOX 001063009717  0000100000101089001000000
B04330010926FS LUCKY STRIKE RED BOX 1002651008041  0000100000100899001000000
B02820000953FS MARLBORO BP BLK SPEC B001025009688  0000100000201079001000000
B02820000465FS MARLBORO BP GOLD BOX 1005696010138  0000100000101129001000000
B02820000384FS MARLBORO BP GOLD KS BO005692010138  0000100000301129001000000
B02820000264FS MARLBORO BP KS BLEND #005702010138  0000100000201129001000000
B02820000357FS MARLBORO BP KS BOX    005676010138  0000100001101129001000000
B02820000323FS MARLBORO BP SMOOTH MEN005780010425  0000100000201159001000000
B02820000963FS MARLBORO BP 72 BP BOX 005996010138  0000100000101129001000000
B02820000965FS MARLBORO BP 72 GOLD BO005997010138  0000100000301129001000000
B02820000386FS MARLBORO BP 72 SILVER 005706010138  0000100000101129001000000
B02820031852FS MARLBORO EIGHTY THREE 001410010138  0000100000301129001000000
B02820000954FS MARLBORO MEN BLK SPEC 001400009688  0000100000101079001000000
B02820000952FS MARLBORO SPEC BLD BLK 001401009688  0000100000201079001000000
B02610000576FS NEWPORT MEN GOLD KS BO001059010739  0000100000101199001000000
B02720000854FS PALL MALL BLUE FILTER 005659009634  0000100000101079001000000
B02720000175FS PALL MALL ORANGE FILTE005663009634  0000100000101079001000000
B02720000185FS PALL MALL ORANGE FILTE005664009634  0000100000101079001000000
B02820000784FS PARLIAMENT BP WHITE KS005748011478  0000100000301279001000000
B09050000061FS WINSTON GOLD  BOX 100 001033009979  0000100000101109001000000
B07310000039COPENHAGEN POUCH MINT 5CT013002004037  0000050000101129001000000
B04210002502COUGAR LC STRAIGHT 5CT RO013015002407  0000050000300669001000000
B04210002496COUGAR LC WINTERGREEN 5CT013007002407  0000050001000669001000000
B07717063287GAMBLER PIPE LARGE 16OZ R010101001549  0000010000301939001000000
B07717063286GAMBLER PIPE MED 6OZ GOLD010174000694  0000010000300869001000000
B07717063284GAMBLER PIPE MED 6OZ REGU010169000694  0000010000300869001000000
B04210000294KODIAK LC WINTERGREEN SNU013006004842  0000050000201349001000000
B07310000060SKOAL LONG CUT STRAIGHT (013071004749  0000050000101319001000000
B75166733783CUBAN ROUNDS PETITE CORON011790004165  0000060000200969001000000
B07339000913AIRHEAD EXTRM SOURFULS 12035415000228  0000010000300419001000000
B81005180735AMOS PEELERZ ORANGE PEG/S036115000274  0000010000600499001000000
B02620047138ANDY CAPP FIRE FRIES 12/3119123001351  0000120000100169001000000
B04157005179BLUE DIAMOND ALMOND SMOKE038421001214  0000120000100159001000000
B09990034663CHUNKY ORIGINAL 24/CT    030111002757  0000240000100199001000000
B04141942005COMBOS CHEDDAR CHEESE PRE380067000247  0000010000300369001000000
B02620046372DAVIDS PUMPKIN SEEDS 12CT910636000165  0000010000600249001000000
B87218100006FLIPZ MILK CHOC PRETZ 6/5133501001848  0000060000100469001000000
B07744950600GURLEY 2/2 FRUIT SLICES 1034911000789  0000120000100129001000000
B01600051528GUSHERS FLVR MIXER 8/4.25036201001388  0000080000100249001000000
B04223832364HARIBO HAPPY COLA 12/5OZ 039011000140  0000010000600209001000000
B04223838086HARIBO PEACHES 12/5OZ    039015000140  0000010000300209001000000
B04223875003HARIBO SOUR STREAMERS 12/039024000140  0000010000600209001000000
B07339001412MENTO GUM CB PURE WHITE 6036897002056  0000060000100579001000000
B07920006067NERD GUMMY CLUSTERS VERY 039102000245  0000010000300359001000000
B01070085910PAYDAY SNACK SZ PB 9/4.9O039858000264  0000010000300379001000000
B85451700258PENNY CANDY BANANARAMA 15042001003080  0000150000100299001000000
B03400011643REESE PIECES HANGING BAG 039091000262  0000010000600379001000000
B02200028596SKITTLES GUMMIES WILD BER039875000205  0000010000300299001000000
B03400000370SKOR BAR 18 CT           030046002240  0000180000100209001000000
B07046201410SOUR PATCH ASST FRUIT 12/038488000231  0000010000300339001000000
B07046200517SOUR PATCH BIG HEADS 12/8039486000231  0000010000600339001000000
B07046200779SOUR PATCH BLUE RASPBERRY039487000231  0000010000300339001000000
B07046200903SOUR PATCH GRAPE 12/8 OZ 039491000231  0000010000300339001000000
B07172053293T/B CHARLESTON CHEWS 12/4043017000134  0000010000300209001000000
B07172053944T/B JUNIOR MINT 12/3.5OZ 043001000134  0000010000600209001000000
B09990044727T/B NES SNOCAPS ON THE GO150525000141  0000010000300219001000000
B02070900253TROLLI PEACHIEO'S 12/4.25039509000170  0000010000600249001000000
B79042923169VALUE NAT CARAMEL APPLE C028231000211  0000010000300299001000000
B79042923126VALUE NAT CHOCO NUT TRAIL028217000245  0000010000300329001000000
B02200000666WRIG DOUBLEMINT SS   2173035004001166  0000100000100199001000000
B02200000891WRIG EXTRA PEPPERMINT SS 035033001186  0000100000100199001000000
B02200001788WRIG EXTRA POLAR ICE MEGA035339001795  0000060000100499001000000
B02200000840WRIG EXTRA WINTERFRESH SS035034001186  0000100000100199001000000
B07079670003ANCHOVIES CENTO FLAT PACK647113000222  0000010000300349001000000
B04218721180B-Y PANCAKE SYRUP 12/24 O682012000332  0000010000300479001000000
B01600036830BUGLES ORIGINAL 6/3.0 OZ.026446001174  0000060000100329001000000
B01600051258BUGLES RANCH 6/3 OZ      026447001174  0000060000100329001000000
B05100000011CAMP TOMATO SOUP 48/10.75665021000170  0000010000300219001000000
B01600021494CHEX MIX TRADITIONAL 8/4.038487001730  0000080000100369001000000
B72225210090CLIF BAR CHOCOLATE CHIP 1123821001721  0000120000100229001000000
B72225210200CLIF BAR COOL MINT CHOCOL123822001721  0000120000100229001000000
B72225244300CLIF BUILDERS CHO CHP CKI123818002096  0000120000100269001000000
B72225260140CLIF BUILDERS COOKIE N CR123889002096  0000120000100269001000000
B03760024609DINTY MOORE BEEFSTEW 12/1645006000271  0000010000300369001000000
B65272971032HAMBURG HELPER CHSEBURG M710274000239  0000010000300319001000000
B05410000060VLASIC KOSHER SPEARS 6/24675034000382  0000010000300589001000000
B05410000560VLASIC STACKER KOSH DILL 675369000382  0000010000300589001000000
B81655901002ZEST BATH SOAP 4 OZ 12/3 680103000305  0000010000300469001000000
B75919980117BACON RTL INDIANA KITCHEN817099000477  0000010000600689001000000
B03800013857PRINGLE 14/5.5OZ CHEDDAR 038012000254  0000010000300379001000000
B03800018371PRINGLE 14/5.5OZ CRISP BB038130000254  0000010000300379001000000
B03800013841PRINGLE 14/5.5OZ ORIGINAL038011000254  0000010000300379001000000
B03800013843PRINGLE 14/5.5OZ SOUR CRE038210000254  0000010000300379001000000
B72049590435TGI FRI SOUR CRM/ONION SK119107000948  0000060000100229001000000
B00008818670DAVID MFN BLK BANANA 12/6881867001590  0000120000100199001000000
B00008818660DAVID MFN BLK BLUEBERRY 1881866001590  0000120000100199001000000
B00008818680DAVID MFN BLK CHOCOLATE C881868001590  0000120000100199001000000
B00008818040DAVID MFN BLK CINNAMON CH881804001590  0000120000100199001000000
B00881878008DAVID MFN BLK FRENCH TOAS881878001590  0000120000100199001000000
B08424465901DONUT JELLY FILLED DOTS 3883105004212  0000360000100199001000000
B01128400357JJ LEMON CREAM PIE 12CT  119409000885  0000120000100129001000000
B01128400311JJ PEACH PIE 12CT        119425000885  0000120000100129001000000
B07225001027M-F BAG DONUT POWDERED SU882070000274  0000010000600399001000000
B07225000765M-F GRAND ICED HONEY BUN 882077000806  0000060000100199001000000
B07225000725M-F JELLY HONEY BUNN 9PK 882060001210  0000090000100199001000000
B07225000817M-F PIE APPLE 8CT        882017001044  0000080000100189001000000
B00008832230PILLS #06237 BTTRMLK BISC883223003594  0000010000105999001000000
B00049800252RICH DONUT RTF HOMESTYLE 885020003907  0000840000100079001000000
B07225001384WONDER CUPCAKE CHOC PNT B882029000806  0000060000100199001000000
B04110008022CLARITIN ALLERGY TABLETS 052977000665  0000010000301029001000000
B81771902221FIT CRUNCH WAFER PEANUTER123523001658  0000090000100289001000000
B79255470072LIL DRUG RAZOR PREMIUM 6/072034000522  0000060000300149001000000
B09955505531GMC DECAF COLUMBIAN 50/2.147006008274  0000500000100279001000000
B09955504441GMC FRENCH ROAST 50/2.2OZ147008008274  0000500000100279001000000
B09955504332GMC FT OUR BLEND 100/2.2O147019016540  0001000000100279001000000
B09955504792GMC HAZELNUT 50/2.2OZ    147013008274  0000500000100279001000000
B03010012521KEEBLER 12PK CLUB & CHEDD121026000711  0000120000100099001000000
B02430086591LITTLE DEBBIE DBL DECK FD119215000785  0000060000100219001000000
B02430086761LITTLE DEBBIE DBL DECK OA119225000785  0000060000100219001000000
B02430086571LITTLE DEBBIE SWISS ROLL 119200000785  0000060000100219001000000
B02430086595LITTLE DEBBIE ZEBRA CAKE 119205000785  0000060000100219001000000
B04400004250NAB LORNA DOONE 4.5 OZ 12120509000287  0000010000300389001000000
B04400004314NAB S.S. CHIP AHOY 10 CT 120288000626  0000100000100109001000000
B04400002954NAB S.S. CHIPS AHOY CHUNK120530001223  0000080000100259001000000
B04400003744NAB S.S. FIG NEWTON 10CT 120290000626  0000120000100089001000000
B04400003745NAB S.S. NUTTER BUTTER 10120289000626  0000100000100109001000000
B01932000198NAB S.S. OREO 10CT       120277000626  0000100000100109001000000
B04400003424NAB 3.4 OZ RITZ 3424 12CT120305000287  0000010000300389001000000
B04400000749NAB 5 OZ OREO 12CT       120163000287  0000010000300389001000000
B04091306325BANANA PEPPER RING MILD 4625088001038  0000010000100000001000000
B00009750010TOTES                    975001000000  0000010000300000001000000
B04410010320HOOD GAL HOMO MILK 4/1 03801001001673  0000040000300529001000000
B04410010652HOOD GAL 2% MILK 4/1 0652801003001606  0000040000100509001000000
B04410010189HOOD HG HOMO MILK 9-1/2 G801009000214  0000010000600269001000000
B04410011056HOOD HG MOOSESTUCK HOMG 9801145000232  0000010000600299001000000
B04410016223HOOD HG 1/2 & 1/2 CREAM 6801030002262  0000060000200479001000000
B04410010252HOOD HG 1% MILK 9-1/2 GAL801013000207  0000010000300259001000000
B04410010293HOOD HG 2% MILK 9-1/2 GAL801011000211  0000010000300269001000000
B04410010316HOOD PT 1/2 & 1/2 CREAM 5801023000105  0000010000600139001000000
B04410010367HOOD QT 1/2 & 1/2 CREAM 5801032000185  0000010000600239001000000
B04410026803HOOD 14OZ CHOC MILK 12/14801033000993  0000120000000109001000000
B04410026269HOOD 14OZ HOMO MILK 12/14801021000887  0000120000200099001000000
B81991301515JUUL PODS 5% MENTHOL 8/2C020387006986  0000080000101099001000000
B81991301142JUUL PODS 5% VIRGINIA TOB020338011409  0000080000101789001000000
B84017060883VELO 3MG PLUS WILD BERRY 012226003681  0000050000101029001000000
B84017061808VELO 6MG PLUS MINT 5CT   012039003681  0000050000201029001000000
B84017061811VELO 9MG PLUS MINT 5CT   012022003681  0000050000101029001000000
B88796901164ZONE 6MG DRAGONFRUIT TFN 012173003412  0000050000100949001000000
B88796901186ZONE 6MG SPEARMINT TFN PC012169003412  0000050000100949001000000
B88796901166ZONE 9MG DRAGONFRUIT TFN 012174003412  0000050000100949001000000
B60924992022ZYN 6MG CHILL TOB FR NIC 012108003541  0000050000100989001000000
B60924990003ZYN 6MG COOL MINT TOB FR 012004003541  0000050000200989001000000
CTABFUEL CHARGE              000001290
